{
  "_format": "hh-sol-artifact-1",
  "contractName": "Lottery",
  "sourceName": "contracts/Lottery.sol",
  "abi": [
    {
      "inputs": [],
      "stateMutability": "nonpayable",
      "type": "constructor"
    },
    {
      "inputs": [
        {
          "internalType": "uint256",
          "name": "",
          "type": "uint256"
        }
      ],
      "name": "activities",
      "outputs": [
        {
          "internalType": "uint256",
          "name": "id",
          "type": "uint256"
        },
        {
          "internalType": "string",
          "name": "name",
          "type": "string"
        },
        {
          "internalType": "uint32",
          "name": "endTime",
          "type": "uint32"
        },
        {
          "internalType": "uint32",
          "name": "baseAmount",
          "type": "uint32"
        },
        {
          "internalType": "uint32",
          "name": "totalAmount",
          "type": "uint32"
        },
        {
          "internalType": "enum Lottery.ActivityStatus",
          "name": "status",
          "type": "uint8"
        },
        {
          "internalType": "uint32",
          "name": "winningOptionIndex",
          "type": "uint32"
        }
      ],
      "stateMutability": "view",
      "type": "function"
    },
    {
      "inputs": [],
      "name": "activityIdCounter",
      "outputs": [
        {
          "internalType": "uint256",
          "name": "",
          "type": "uint256"
        }
      ],
      "stateMutability": "view",
      "type": "function"
    },
    {
      "inputs": [
        {
          "internalType": "uint256",
          "name": "",
          "type": "uint256"
        },
        {
          "internalType": "uint256",
          "name": "",
          "type": "uint256"
        }
      ],
      "name": "activityIdToListingIds",
      "outputs": [
        {
          "internalType": "uint256",
          "name": "",
          "type": "uint256"
        }
      ],
      "stateMutability": "view",
      "type": "function"
    },
    {
      "inputs": [
        {
          "internalType": "uint256",
          "name": "",
          "type": "uint256"
        },
        {
          "internalType": "uint256",
          "name": "",
          "type": "uint256"
        }
      ],
      "name": "activityIdToTicketIds",
      "outputs": [
        {
          "internalType": "uint256",
          "name": "",
          "type": "uint256"
        }
      ],
      "stateMutability": "view",
      "type": "function"
    },
    {
      "inputs": [
        {
          "internalType": "uint256",
          "name": "listingId",
          "type": "uint256"
        }
      ],
      "name": "buyListing",
      "outputs": [],
      "stateMutability": "nonpayable",
      "type": "function"
    },
    {
      "inputs": [
        {
          "internalType": "uint256",
          "name": "activityId",
          "type": "uint256"
        },
        {
          "internalType": "uint32",
          "name": "optionIndex",
          "type": "uint32"
        },
        {
          "internalType": "uint32",
          "name": "amount",
          "type": "uint32"
        }
      ],
      "name": "buyTicket",
      "outputs": [],
      "stateMutability": "nonpayable",
      "type": "function"
    },
    {
      "inputs": [
        {
          "internalType": "uint256",
          "name": "listingId",
          "type": "uint256"
        }
      ],
      "name": "cancelListing",
      "outputs": [],
      "stateMutability": "nonpayable",
      "type": "function"
    },
    {
      "inputs": [
        {
          "internalType": "uint256",
          "name": "activityId",
          "type": "uint256"
        }
      ],
      "name": "cancelListingsByActivityId",
      "outputs": [],
      "stateMutability": "nonpayable",
      "type": "function"
    },
    {
      "inputs": [
        {
          "internalType": "string",
          "name": "name",
          "type": "string"
        },
        {
          "internalType": "string[]",
          "name": "options",
          "type": "string[]"
        },
        {
          "internalType": "uint32",
          "name": "endTime",
          "type": "uint32"
        },
        {
          "internalType": "uint32",
          "name": "baseAmount",
          "type": "uint32"
        }
      ],
      "name": "createActivity",
      "outputs": [],
      "stateMutability": "nonpayable",
      "type": "function"
    },
    {
      "inputs": [
        {
          "internalType": "uint256",
          "name": "activityId",
          "type": "uint256"
        },
        {
          "internalType": "uint32",
          "name": "winningOptionIndex",
          "type": "uint32"
        }
      ],
      "name": "drawLottery",
      "outputs": [],
      "stateMutability": "nonpayable",
      "type": "function"
    },
    {
      "inputs": [],
      "name": "getActivities",
      "outputs": [
        {
          "components": [
            {
              "internalType": "uint256",
              "name": "id",
              "type": "uint256"
            },
            {
              "internalType": "string",
              "name": "name",
              "type": "string"
            },
            {
              "internalType": "string[]",
              "name": "options",
              "type": "string[]"
            },
            {
              "internalType": "uint32",
              "name": "endTime",
              "type": "uint32"
            },
            {
              "internalType": "uint32",
              "name": "baseAmount",
              "type": "uint32"
            },
            {
              "internalType": "uint32",
              "name": "totalAmount",
              "type": "uint32"
            },
            {
              "internalType": "enum Lottery.ActivityStatus",
              "name": "status",
              "type": "uint8"
            },
            {
              "internalType": "uint32",
              "name": "winningOptionIndex",
              "type": "uint32"
            }
          ],
          "internalType": "struct Lottery.Activity[]",
          "name": "",
          "type": "tuple[]"
        }
      ],
      "stateMutability": "view",
      "type": "function"
    },
    {
      "inputs": [
        {
          "internalType": "uint256",
          "name": "activityId",
          "type": "uint256"
        }
      ],
      "name": "getListingsByActivityId",
      "outputs": [
        {
          "components": [
            {
              "internalType": "uint256",
              "name": "id",
              "type": "uint256"
            },
            {
              "internalType": "uint256",
              "name": "ticketId",
              "type": "uint256"
            },
            {
              "internalType": "uint256",
              "name": "activityId",
              "type": "uint256"
            },
            {
              "internalType": "string",
              "name": "name",
              "type": "string"
            },
            {
              "internalType": "string",
              "name": "option",
              "type": "string"
            },
            {
              "internalType": "address",
              "name": "seller",
              "type": "address"
            },
            {
              "internalType": "uint32",
              "name": "price",
              "type": "uint32"
            },
            {
              "internalType": "uint32",
              "name": "amount",
              "type": "uint32"
            },
            {
              "internalType": "uint32",
              "name": "endTime",
              "type": "uint32"
            },
            {
              "internalType": "enum Lottery.ListingStatus",
              "name": "status",
              "type": "uint8"
            }
          ],
          "internalType": "struct Lottery.ListingResponse[]",
          "name": "",
          "type": "tuple[]"
        }
      ],
      "stateMutability": "view",
      "type": "function"
    },
    {
      "inputs": [],
      "name": "getListingsBySeller",
      "outputs": [
        {
          "components": [
            {
              "internalType": "uint256",
              "name": "id",
              "type": "uint256"
            },
            {
              "internalType": "uint256",
              "name": "ticketId",
              "type": "uint256"
            },
            {
              "internalType": "uint256",
              "name": "activityId",
              "type": "uint256"
            },
            {
              "internalType": "string",
              "name": "name",
              "type": "string"
            },
            {
              "internalType": "string",
              "name": "option",
              "type": "string"
            },
            {
              "internalType": "address",
              "name": "seller",
              "type": "address"
            },
            {
              "internalType": "uint32",
              "name": "price",
              "type": "uint32"
            },
            {
              "internalType": "uint32",
              "name": "amount",
              "type": "uint32"
            },
            {
              "internalType": "uint32",
              "name": "endTime",
              "type": "uint32"
            },
            {
              "internalType": "enum Lottery.ListingStatus",
              "name": "status",
              "type": "uint8"
            }
          ],
          "internalType": "struct Lottery.ListingResponse[]",
          "name": "",
          "type": "tuple[]"
        }
      ],
      "stateMutability": "view",
      "type": "function"
    },
    {
      "inputs": [
        {
          "internalType": "address",
          "name": "owner",
          "type": "address"
        }
      ],
      "name": "getTicketsByOwner",
      "outputs": [
        {
          "components": [
            {
              "internalType": "uint256",
              "name": "id",
              "type": "uint256"
            },
            {
              "internalType": "uint256",
              "name": "activityId",
              "type": "uint256"
            },
            {
              "internalType": "string",
              "name": "name",
              "type": "string"
            },
            {
              "internalType": "uint32",
              "name": "amount",
              "type": "uint32"
            },
            {
              "internalType": "uint32",
              "name": "optionIndex",
              "type": "uint32"
            },
            {
              "internalType": "string",
              "name": "option",
              "type": "string"
            },
            {
              "internalType": "uint32",
              "name": "endTime",
              "type": "uint32"
            },
            {
              "internalType": "enum Lottery.TicketStatus",
              "name": "status",
              "type": "uint8"
            },
            {
              "internalType": "enum Lottery.ActivityStatus",
              "name": "activityStatus",
              "type": "uint8"
            }
          ],
          "internalType": "struct Lottery.TicketResponse[]",
          "name": "",
          "type": "tuple[]"
        }
      ],
      "stateMutability": "view",
      "type": "function"
    },
    {
      "inputs": [
        {
          "internalType": "uint256",
          "name": "ticketId",
          "type": "uint256"
        },
        {
          "internalType": "uint32",
          "name": "price",
          "type": "uint32"
        }
      ],
      "name": "listTicket",
      "outputs": [],
      "stateMutability": "nonpayable",
      "type": "function"
    },
    {
      "inputs": [],
      "name": "listingIdCounter",
      "outputs": [
        {
          "internalType": "uint256",
          "name": "",
          "type": "uint256"
        }
      ],
      "stateMutability": "view",
      "type": "function"
    },
    {
      "inputs": [
        {
          "internalType": "uint256",
          "name": "",
          "type": "uint256"
        }
      ],
      "name": "listings",
      "outputs": [
        {
          "internalType": "uint256",
          "name": "id",
          "type": "uint256"
        },
        {
          "internalType": "uint256",
          "name": "ticketId",
          "type": "uint256"
        },
        {
          "internalType": "address",
          "name": "seller",
          "type": "address"
        },
        {
          "internalType": "uint32",
          "name": "price",
          "type": "uint32"
        },
        {
          "internalType": "enum Lottery.ListingStatus",
          "name": "status",
          "type": "uint8"
        }
      ],
      "stateMutability": "view",
      "type": "function"
    },
    {
      "inputs": [],
      "name": "manager",
      "outputs": [
        {
          "internalType": "address",
          "name": "",
          "type": "address"
        }
      ],
      "stateMutability": "view",
      "type": "function"
    },
    {
      "inputs": [],
      "name": "myERC20",
      "outputs": [
        {
          "internalType": "contract MyERC20",
          "name": "",
          "type": "address"
        }
      ],
      "stateMutability": "view",
      "type": "function"
    },
    {
      "inputs": [],
      "name": "myERC721",
      "outputs": [
        {
          "internalType": "contract MyERC721",
          "name": "",
          "type": "address"
        }
      ],
      "stateMutability": "view",
      "type": "function"
    },
    {
      "inputs": [
        {
          "internalType": "address",
          "name": "",
          "type": "address"
        },
        {
          "internalType": "uint256",
          "name": "",
          "type": "uint256"
        }
      ],
      "name": "ownerToListingIds",
      "outputs": [
        {
          "internalType": "uint256",
          "name": "",
          "type": "uint256"
        }
      ],
      "stateMutability": "view",
      "type": "function"
    },
    {
      "inputs": [
        {
          "internalType": "address",
          "name": "",
          "type": "address"
        },
        {
          "internalType": "uint256",
          "name": "",
          "type": "uint256"
        }
      ],
      "name": "ownerToTicketIds",
      "outputs": [
        {
          "internalType": "uint256",
          "name": "",
          "type": "uint256"
        }
      ],
      "stateMutability": "view",
      "type": "function"
    },
    {
      "inputs": [
        {
          "internalType": "uint256",
          "name": "activityId",
          "type": "uint256"
        }
      ],
      "name": "refund",
      "outputs": [],
      "stateMutability": "nonpayable",
      "type": "function"
    },
    {
      "inputs": [
        {
          "internalType": "uint256",
          "name": "",
          "type": "uint256"
        }
      ],
      "name": "tickets",
      "outputs": [
        {
          "internalType": "uint256",
          "name": "id",
          "type": "uint256"
        },
        {
          "internalType": "uint256",
          "name": "activityId",
          "type": "uint256"
        },
        {
          "internalType": "uint32",
          "name": "amount",
          "type": "uint32"
        },
        {
          "internalType": "uint32",
          "name": "optionIndex",
          "type": "uint32"
        },
        {
          "internalType": "enum Lottery.TicketStatus",
          "name": "status",
          "type": "uint8"
        }
      ],
      "stateMutability": "view",
      "type": "function"
    }
  ],
  "bytecode": "0x60806040523480156200001157600080fd5b5060405162000020906200014a565b6040808252600890820152672d252aaa37b5b2b760c11b6060820152608060208201819052600e908201526d169295551bdad95b94de5b589bdb60921b60a082015260c001604051809103906000f08015801562000082573d6000803e3d6000fd5b50600180546001600160a01b0319166001600160a01b0392909216919091179055604051620000b19062000158565b60408082526006908201526516929553919560d21b6060820152608060208201819052600c908201526b16929553919514de5b589bdb60a21b60a082015260c001604051809103906000f0801580156200010f573d6000803e3d6000fd5b50600280546001600160a01b03929092166001600160a01b031992831617905560006003819055600481905580549091163317905562000166565b610b30806200407e83390190565b6112d58062004bae83390190565b613f0880620001766000396000f3fe608060405234801561001057600080fd5b50600436106101585760003560e01c806350b44712116100c357806381dde79b1161007c57806381dde79b1461030f5780638f334e8d146103225780639bdc25d014610335578063c456512e14610348578063de74e57b1461035b578063f7ab63501461037f57600080fd5b806350b44712146102885780635a4adaf2146102ac57806367aa23e2146102b45780636d3739c4146102d457806371aa17c6146102e757806374fd89dc146102fc57600080fd5b806334c656af1161011557806334c656af146101f1578063364e72f5146102045780633b73e0f6146102175780634316ea9b14610237578063481c6a751461024a5780634884f4591461027557600080fd5b80630d1657e81461015d57806316888cd81461018c578063231701e9146101a1578063278ecde1146101b85780632f7cef29146101cb578063305a67a8146101de575b600080fd5b61017061016b366004613450565b610388565b60405161018397969594939291906134e2565b60405180910390f35b61019f61019a366004613557565b610477565b005b6101aa60045481565b604051908152602001610183565b61019f6101c6366004613450565b61084b565b6101aa6101d93660046135a8565b610ac5565b61019f6101ec366004613450565b610af6565b6101aa6101ff3660046135d4565b610c2d565b61019f6102123660046136ad565b610c49565b61022a610225366004613450565b610f3c565b60405161018391906137b5565b61019f6102453660046138bd565b611486565b60005461025d906001600160a01b031681565b6040516001600160a01b039091168152602001610183565b61019f610283366004613450565b611907565b61029b610296366004613450565b611c9c565b6040516101839594939291906138f9565b61022a611ced565b6102c76102c2366004613932565b612237565b6040516101839190613956565b60015461025d906001600160a01b031681565b6102ef6126d7565b6040516101839190613a50565b6101aa61030a3660046135d4565b612927565b6101aa61031d3660046135a8565b612943565b60025461025d906001600160a01b031681565b61019f610343366004613450565b61295f565b61019f6103563660046138bd565b612c89565b61036e610369366004613450565b61314e565b604051610183959493929190613b9e565b6101aa60035481565b6005818154811061039857600080fd5b600091825260209091206004909102018054600182018054919350906103bd90613be0565b80601f01602080910402602001604051908101604052809291908181526020018280546103e990613be0565b80156104365780601f1061040b57610100808354040283529160200191610436565b820191906000526020600020905b81548152906001019060200180831161041957829003601f168201915b5050506003909301549192505063ffffffff80821691600160201b8104821691600160401b820481169160ff600160601b82041691600160681b9091041687565b60055483106104a15760405162461bcd60e51b815260040161049890613c1a565b60405180910390fd5b600583815481106104b4576104b4613c51565b9060005260206000209060040201600201805490508263ffffffff16106105145760405162461bcd60e51b8152602060048201526014602482015273092dcecc2d8d2c840dee0e8d2dedc40d2dcc8caf60631b6044820152606401610498565b60006005848154811061052957610529613c51565b9060005260206000209060040201600301600c9054906101000a900460ff166002811115610559576105596134af565b146105765760405162461bcd60e51b815260040161049890613c67565b60008163ffffffff16116105cc5760405162461bcd60e51b815260206004820152601d60248201527f416d6f756e74206d7573742062652067726561746572207468616e20300000006044820152606401610498565b6001546040516323b872dd60e01b815233600482015230602482015263ffffffff831660448201526000916001600160a01b0316906323b872dd906064016020604051808303816000875af1158015610629573d6000803e3d6000fd5b505050506040513d601f19601f8201168201806040525081019061064d9190613c97565b90508061065957600080fd5b60025460405163a5763a1f60e01b81523360048201526000916001600160a01b03169063a5763a1f906024016020604051808303816000875af11580156106a4573d6000803e3d6000fd5b505050506040513d601f19601f820116820180604052508101906106c89190613cb9565b905060066040518060a001604052808381526020018781526020018563ffffffff1681526020018663ffffffff1681526020016000600381111561070e5761070e6134af565b905281546001818101845560009384526020938490208351600393840290910190815593830151908401556040820151600284018054606085015163ffffffff908116600160201b0267ffffffffffffffff199092169316929092179190911780825560808401519394939260ff60401b1990911690600160401b90849081111561079b5761079b6134af565b02179055505033600090815260086020908152604080832080546001818101835591855283852001869055898452600983529083208054918201815583529120018290555060058054849190879081106107f7576107f7613c51565b906000526020600020906004020160030160088282829054906101000a900463ffffffff166108269190613ce8565b92506101000a81548163ffffffff021916908363ffffffff1602179055505050505050565b600554811061086c5760405162461bcd60e51b815260040161049890613c1a565b60006005828154811061088157610881613c51565b60009182526020822060049091020191506003820154600160601b900460ff1660028111156108b2576108b26134af565b146108cf5760405162461bcd60e51b815260040161049890613c67565b6108d88261295f565b60038101805460ff60601b1916600160611b17905560008281526009602090815260408083208054825181850281018501909352808352919290919083018282801561094357602002820191906000526020600020905b81548152602001906001019080831161092f575b5050505050905060005b8151811015610abf576000600683838151811061096c5761096c613c51565b60200260200101518154811061098457610984613c51565b600091825260208220600154600254600390930290910180546040516331a9108f60e11b81529195506001600160a01b039283169363a9059cbb931691636352211e916109d79160040190815260200190565b602060405180830381865afa1580156109f4573d6000803e3d6000fd5b505050506040513d601f19601f82011682018060405250810190610a189190613d05565b600285015460405160e084901b6001600160e01b03191681526001600160a01b03909216600483015263ffffffff1660248201526044016020604051808303816000875af1158015610a6e573d6000803e3d6000fd5b505050506040513d601f19601f82011682018060405250810190610a929190613c97565b905080610a9e57600080fd5b50600201805460ff60401b1916905580610ab781613d22565b91505061094d565b50505050565b600b6020528160005260406000208181548110610ae157600080fd5b90600052602060002001600091509150505481565b6007548110610b405760405162461bcd60e51b8152602060048201526016602482015275131a5cdd1a5b99c8191bd95cc81b9bdd08195e1a5cdd60521b6044820152606401610498565b600060078281548110610b5557610b55613c51565b6000918252602082206003909102019150600282810154600160c01b900460ff1690811115610b8657610b866134af565b14610bcb5760405162461bcd60e51b81526020600482015260156024820152744c697374696e67206973206e6f742061637469766560581b6044820152606401610498565b60028101546001600160a01b03163314610c205760405162461bcd60e51b81526020600482015260166024820152752cb7ba9030b932903737ba103a34329039b2b63632b960511b6044820152606401610498565b610c29826131a4565b5050565b60096020528160005260406000208181548110610ae157600080fd5b6000546001600160a01b03163314610c6057600080fd5b600283511015610cb25760405162461bcd60e51b815260206004820152601b60248201527f4174206c656173742032206f7074696f6e7320726571756972656400000000006044820152606401610498565b428263ffffffff1611610d075760405162461bcd60e51b815260206004820152601e60248201527f456e642074696d65206d75737420626520696e207468652066757475726500006044820152606401610498565b604080516101008101825260035481526020810186815291810185905263ffffffff848116606083015283166080820181905260a0820152600060c0820181905260e08201819052600580546001810182559152815160049091027f036b6384b5eca791c62761152d0c79bb0604c104a5fb6f4eb0703f3154bb3db081019182559251919290917f036b6384b5eca791c62761152d0c79bb0604c104a5fb6f4eb0703f3154bb3db190910190610dbd9082613d8a565b5060408201518051610dd99160028401916020909101906132cc565b506060820151600382018054608085015160a086015163ffffffff908116600160401b026bffffffff000000000000000019928216600160201b0267ffffffffffffffff199094169190951617919091179081168317825560c08501519260ff60601b19166cffffffffff00000000000000001990911617600160601b836002811115610e6857610e686134af565b021790555060e091909101516003918201805463ffffffff909216600160681b0263ffffffff60681b199092169190911790558054906000610ea983613d22565b90915550506001546040516340c10f1960e01b815230600482015263ffffffff831660248201526000916001600160a01b0316906340c10f19906044016020604051808303816000875af1158015610f05573d6000803e3d6000fd5b505050506040513d601f19601f82011682018060405250810190610f299190613c97565b905080610f3557600080fd5b5050505050565b6000818152600a60209081526040808320805482518185028101850190935280835260609493830182828015610f9157602002820191906000526020600020905b815481526020019060010190808311610f7d575b505050505090506000815167ffffffffffffffff811115610fb457610fb46135f6565b604051908082528060200260200182016040528015610fed57816020015b610fda613322565b815260200190600190039081610fd25790505b50905060005b825181101561147e576000600784838151811061101257611012613c51565b60200260200101518154811061102a5761102a613c51565b60009182526020918290206040805160a0810182526003909302909101805483526001810154938301939093526002808401546001600160a01b0381169284019290925263ffffffff600160a01b8304166060840152919291608084019160ff600160c01b90910416908111156110a3576110a36134af565b60028111156110b4576110b46134af565b815250509050600060068260200151815481106110d3576110d3613c51565b60009182526020918290206040805160a081018252600393840290920180548352600181015494830194909452600284015463ffffffff80821692840192909252600160201b810490911660608301529092916080840191600160401b900460ff1690811115611145576111456134af565b6003811115611156576111566134af565b8152505090506000600582602001518154811061117557611175613c51565b906000526020600020906004020160405180610100016040529081600082015481526020016001820180546111a990613be0565b80601f01602080910402602001604051908101604052809291908181526020018280546111d590613be0565b80156112225780601f106111f757610100808354040283529160200191611222565b820191906000526020600020905b81548152906001019060200180831161120557829003601f168201915b5050505050815260200160028201805480602002602001604051908101604052809291908181526020016000905b828210156112fc57838290600052602060002001805461126f90613be0565b80601f016020809104026020016040519081016040528092919081815260200182805461129b90613be0565b80156112e85780601f106112bd576101008083540402835291602001916112e8565b820191906000526020600020905b8154815290600101906020018083116112cb57829003601f168201915b505050505081526020019060010190611250565b50505090825250600382015463ffffffff8082166020840152600160201b820481166040840152600160401b8204166060830152608090910190600160601b900460ff166002811115611351576113516134af565b6002811115611362576113626134af565b815260200160038201600d9054906101000a900463ffffffff1663ffffffff1663ffffffff16815250509050604051806101400160405280846000015181526020018460200151815260200183602001518152602001826020015181526020018260400151846060015163ffffffff16815181106113e2576113e2613c51565b6020026020010151815260200184604001516001600160a01b03168152602001846060015163ffffffff168152602001836040015163ffffffff168152602001826060015163ffffffff16815260200184608001516002811115611448576114486134af565b81525085858151811061145d5761145d613c51565b6020026020010181905250505050808061147690613d22565b915050610ff3565b509392505050565b60065482106114cf5760405162461bcd60e51b8152602060048201526015602482015274151a58dad95d08191bd95cc81b9bdd08195e1a5cdd605a1b6044820152606401610498565b6002546040516331a9108f60e11b81526004810184905233916001600160a01b031690636352211e90602401602060405180830381865afa158015611518573d6000803e3d6000fd5b505050506040513d601f19601f8201168201806040525081019061153c9190613d05565b6001600160a01b03161461159e5760405162461bcd60e51b8152602060048201526024808201527f596f7520617265206e6f7420746865206f776e6572206f66207468697320746960448201526318dad95d60e21b6064820152608401610498565b6000600683815481106115b3576115b3613c51565b906000526020600020906003020160020160089054906101000a900460ff1660038111156115e3576115e36134af565b1461163c5760405162461bcd60e51b815260206004820152602360248201527f5469636b6574206973206e6f7420617661696c61626c6520666f72206c697374604482015262696e6760e81b6064820152608401610498565b60008163ffffffff16116116925760405162461bcd60e51b815260206004820152601c60248201527f5072696365206d7573742062652067726561746572207468616e2030000000006044820152606401610498565b60006005600684815481106116a9576116a9613c51565b906000526020600020906003020160010154815481106116cb576116cb613c51565b9060005260206000209060040201600301600c9054906101000a900460ff1660028111156116fb576116fb6134af565b146117185760405162461bcd60e51b815260040161049890613c67565b60006006838154811061172d5761172d613c51565b600091825260209091206002546040516323b872dd60e01b815233600482015230602482015260448101879052600390930290910192506001600160a01b0316906323b872dd90606401600060405180830381600087803b15801561179157600080fd5b505af11580156117a5573d6000803e3d6000fd5b5050505060076040518060a001604052806004548152602001858152602001336001600160a01b031681526020018463ffffffff168152602001600060028111156117f2576117f26134af565b9052815460018181018455600093845260209384902083516003909302019182559282015192810192909255604081015160028084018054606085015163ffffffff16600160a01b026001600160c01b03199091166001600160a01b0390941693909317929092178083556080840151939493929160ff60c01b1990911690600160c01b908490811115611888576118886134af565b0217905550505060028101805460ff60401b1916600160401b1790556001808201546000908152600a60209081526040808320600480548254808801845592865284862090920191909155338452600b835290832081548154958601825590845291832090930155815491906118fd83613d22565b9190505550505050565b60075481106119515760405162461bcd60e51b8152602060048201526016602482015275131a5cdd1a5b99c8191bd95cc81b9bdd08195e1a5cdd60521b6044820152606401610498565b60006007828154811061196657611966613c51565b6000918252602082206003909102019150600282810154600160c01b900460ff1690811115611997576119976134af565b146119dc5760405162461bcd60e51b81526020600482015260156024820152744c697374696e67206973206e6f742061637469766560581b6044820152606401610498565b600181015460028201546001600160a01b0316338103611a3e5760405162461bcd60e51b815260206004820152601f60248201527f596f752063616e6e6f742062757920796f7572206f776e206c697374696e67006044820152606401610498565b60015460028401546040516323b872dd60e01b81523360048201526001600160a01b038481166024830152600160a01b90920463ffffffff16604482015260009291909116906323b872dd906064016020604051808303816000875af1158015611aac573d6000803e3d6000fd5b505050506040513d601f19601f82011682018060405250810190611ad09190613c97565b905080611adc57600080fd5b6002546040516323b872dd60e01b8152306004820152336024820152604481018590526001600160a01b03909116906323b872dd90606401600060405180830381600087803b158015611b2e57600080fd5b505af1158015611b42573d6000803e3d6000fd5b505033600090815260086020908152604080832080546001810182559084529183209091018790556001600160a01b03861682528120925090505b8154811015611c315784828281548110611b9957611b99613c51565b906000526020600020015403611c1f5781548290611bb990600190613e4a565b81548110611bc957611bc9613c51565b9060005260206000200154828281548110611be657611be6613c51565b906000526020600020018190555081805480611c0457611c04613e63565b60019003818190600052602060002001600090559055611c31565b80611c2981613d22565b915050611b7d565b50600060068581548110611c4757611c47613c51565b906000526020600020906003020160020160086101000a81548160ff02191690836003811115611c7957611c796134af565b0217905550505050600291909101805460ff60c01b1916600160c11b1790555050565b60068181548110611cac57600080fd5b600091825260209091206003909102018054600182015460029092015490925063ffffffff80821691600160201b810490911690600160401b900460ff1685565b336000908152600b60209081526040808320805482518185028101850190935280835260609493830182828015611d4357602002820191906000526020600020905b815481526020019060010190808311611d2f575b505050505090506000815167ffffffffffffffff811115611d6657611d666135f6565b604051908082528060200260200182016040528015611d9f57816020015b611d8c613322565b815260200190600190039081611d845790505b50905060005b82518110156122305760006007848381518110611dc457611dc4613c51565b602002602001015181548110611ddc57611ddc613c51565b60009182526020918290206040805160a0810182526003909302909101805483526001810154938301939093526002808401546001600160a01b0381169284019290925263ffffffff600160a01b8304166060840152919291608084019160ff600160c01b9091041690811115611e5557611e556134af565b6002811115611e6657611e666134af565b81525050905060006006826020015181548110611e8557611e85613c51565b60009182526020918290206040805160a081018252600393840290920180548352600181015494830194909452600284015463ffffffff80821692840192909252600160201b810490911660608301529092916080840191600160401b900460ff1690811115611ef757611ef76134af565b6003811115611f0857611f086134af565b81525050905060006005826020015181548110611f2757611f27613c51565b90600052602060002090600402016040518061010001604052908160008201548152602001600182018054611f5b90613be0565b80601f0160208091040260200160405190810160405280929190818152602001828054611f8790613be0565b8015611fd45780601f10611fa957610100808354040283529160200191611fd4565b820191906000526020600020905b815481529060010190602001808311611fb757829003601f168201915b5050505050815260200160028201805480602002602001604051908101604052809291908181526020016000905b828210156120ae57838290600052602060002001805461202190613be0565b80601f016020809104026020016040519081016040528092919081815260200182805461204d90613be0565b801561209a5780601f1061206f5761010080835404028352916020019161209a565b820191906000526020600020905b81548152906001019060200180831161207d57829003601f168201915b505050505081526020019060010190612002565b50505090825250600382015463ffffffff8082166020840152600160201b820481166040840152600160401b8204166060830152608090910190600160601b900460ff166002811115612103576121036134af565b6002811115612114576121146134af565b815260200160038201600d9054906101000a900463ffffffff1663ffffffff1663ffffffff16815250509050604051806101400160405280846000015181526020018460200151815260200183602001518152602001826020015181526020018260400151846060015163ffffffff168151811061219457612194613c51565b6020026020010151815260200184604001516001600160a01b03168152602001846060015163ffffffff168152602001836040015163ffffffff168152602001826060015163ffffffff168152602001846080015160028111156121fa576121fa6134af565b81525085858151811061220f5761220f613c51565b6020026020010181905250505050808061222890613d22565b915050611da5565b5092915050565b6001600160a01b038116600090815260086020908152604080832080548251818502810185019093528083526060949383018282801561229657602002820191906000526020600020905b815481526020019060010190808311612282575b505050505090506000815167ffffffffffffffff8111156122b9576122b96135f6565b6040519080825280602002602001820160405280156122f257816020015b6122df613373565b8152602001906001900390816122d75790505b50905060005b825181101561147e576000600684838151811061231757612317613c51565b60200260200101518154811061232f5761232f613c51565b60009182526020918290206040805160a081018252600393840290920180548352600181015494830194909452600284015463ffffffff80821692840192909252600160201b810490911660608301529092916080840191600160401b900460ff16908111156123a1576123a16134af565b60038111156123b2576123b26134af565b815250509050600060058260200151815481106123d1576123d1613c51565b9060005260206000209060040201604051806101000160405290816000820154815260200160018201805461240590613be0565b80601f016020809104026020016040519081016040528092919081815260200182805461243190613be0565b801561247e5780601f106124535761010080835404028352916020019161247e565b820191906000526020600020905b81548152906001019060200180831161246157829003601f168201915b5050505050815260200160028201805480602002602001604051908101604052809291908181526020016000905b828210156125585783829060005260206000200180546124cb90613be0565b80601f01602080910402602001604051908101604052809291908181526020018280546124f790613be0565b80156125445780601f1061251957610100808354040283529160200191612544565b820191906000526020600020905b81548152906001019060200180831161252757829003601f168201915b5050505050815260200190600101906124ac565b50505090825250600382015463ffffffff8082166020840152600160201b820481166040840152600160401b8204166060830152608090910190600160601b900460ff1660028111156125ad576125ad6134af565b60028111156125be576125be6134af565b815260200160038201600d9054906101000a900463ffffffff1663ffffffff1663ffffffff16815250509050604051806101200160405280836000015181526020018360200151815260200182602001518152602001836040015163ffffffff168152602001836060015163ffffffff1681526020018260400151846060015163ffffffff168151811061265457612654613c51565b60200260200101518152602001826060015163ffffffff16815260200183608001516003811115612687576126876134af565b81526020018260c0015160028111156126a2576126a26134af565b8152508484815181106126b7576126b7613c51565b6020026020010181905250505080806126cf90613d22565b9150506122f8565b60606005805480602002602001604051908101604052809291908181526020016000905b8282101561291e5783829060005260206000209060040201604051806101000160405290816000820154815260200160018201805461273990613be0565b80601f016020809104026020016040519081016040528092919081815260200182805461276590613be0565b80156127b25780601f10612787576101008083540402835291602001916127b2565b820191906000526020600020905b81548152906001019060200180831161279557829003601f168201915b5050505050815260200160028201805480602002602001604051908101604052809291908181526020016000905b8282101561288c5783829060005260206000200180546127ff90613be0565b80601f016020809104026020016040519081016040528092919081815260200182805461282b90613be0565b80156128785780601f1061284d57610100808354040283529160200191612878565b820191906000526020600020905b81548152906001019060200180831161285b57829003601f168201915b5050505050815260200190600101906127e0565b50505090825250600382015463ffffffff8082166020840152600160201b820481166040840152600160401b8204166060830152608090910190600160601b900460ff1660028111156128e1576128e16134af565b60028111156128f2576128f26134af565b81526003919091015463ffffffff600160681b90910416602091820152908252600190920191016126fb565b50505050905090565b600a6020528160005260406000208181548110610ae157600080fd5b60086020528160005260406000208181548110610ae157600080fd5b6000546001600160a01b0316331461297657600080fd5b60055481106129975760405162461bcd60e51b815260040161049890613c1a565b6000600582815481106129ac576129ac613c51565b906000526020600020906004020160405180610100016040529081600082015481526020016001820180546129e090613be0565b80601f0160208091040260200160405190810160405280929190818152602001828054612a0c90613be0565b8015612a595780601f10612a2e57610100808354040283529160200191612a59565b820191906000526020600020905b815481529060010190602001808311612a3c57829003601f168201915b5050505050815260200160028201805480602002602001604051908101604052809291908181526020016000905b82821015612b33578382906000526020600020018054612aa690613be0565b80601f0160208091040260200160405190810160405280929190818152602001828054612ad290613be0565b8015612b1f5780601f10612af457610100808354040283529160200191612b1f565b820191906000526020600020905b815481529060010190602001808311612b0257829003601f168201915b505050505081526020019060010190612a87565b50505090825250600382015463ffffffff8082166020840152600160201b820481166040840152600160401b8204166060830152608090910190600160601b900460ff166002811115612b8857612b886134af565b6002811115612b9957612b996134af565b815260039190910154600160681b900463ffffffff16602090910152905060008160c001516002811115612bcf57612bcf6134af565b14612bec5760405162461bcd60e51b815260040161049890613c67565b6000828152600a6020908152604080832080548251818502810185019093528083529192909190830182828015612c4257602002820191906000526020600020905b815481526020019060010190808311612c2e575b5050505050905060005b8151811015610abf57612c77828281518110612c6a57612c6a613c51565b60200260200101516131a4565b80612c8181613d22565b915050612c4c565b6000546001600160a01b03163314612ca057600080fd5b6005548210612cc15760405162461bcd60e51b815260040161049890613c1a565b600060058381548110612cd657612cd6613c51565b60009182526020822060049091020191506003820154600160601b900460ff166002811115612d0757612d076134af565b14612d245760405162461bcd60e51b815260040161049890613c67565b600281015463ffffffff831610612d745760405162461bcd60e51b8152602060048201526014602482015273092dcecc2d8d2c840dee0e8d2dedc40d2dcc8caf60631b6044820152606401610498565b600083815260096020908152604080832080548251818502810185019093528083529192909190830182828015612dca57602002820191906000526020600020905b815481526020019060010190808311612db6575b505050505090506000805b8251811015612ed15760006006848381518110612df457612df4613c51565b602002602001015181548110612e0c57612e0c613c51565b60009182526020918290206040805160a081018252600393840290920180548352600181015494830194909452600284015463ffffffff80821692840192909252600160201b810490911660608301529092916080840191600160401b900460ff1690811115612e7e57612e7e6134af565b6003811115612e8f57612e8f6134af565b8152505090508563ffffffff16816060015163ffffffff1603612ebe576040810151612ebb9084613ce8565b92505b5080612ec981613d22565b915050612dd5565b5060008163ffffffff1611612f1d5760405162461bcd60e51b81526020600482015260126024820152714e6f2077696e6e696e67207469636b65747360701b6044820152606401610498565b612f268561295f565b600383018054600160601b63ffffffff878116600160681b0264ffffffffff60601b19909316929092171791829055600160401b9091041660005b83518110156131455760006006858381518110612f8057612f80613c51565b602002602001015181548110612f9857612f98613c51565b906000526020600020906003020190508663ffffffff168160020160049054906101000a900463ffffffff1663ffffffff16036131175760025481546040516331a9108f60e11b815260048101919091526000916001600160a01b031690636352211e90602401602060405180830381865afa15801561301c573d6000803e3d6000fd5b505050506040513d601f19601f820116820180604052508101906130409190613d05565b6002830154909150600090869061305d9063ffffffff1687613e79565b6130679190613ea1565b60015460405163a9059cbb60e01b81526001600160a01b03858116600483015263ffffffff841660248301529293506000929091169063a9059cbb906044016020604051808303816000875af11580156130c5573d6000803e3d6000fd5b505050506040513d601f19601f820116820180604052508101906130e99190613c97565b9050806130f557600080fd5b50505060028101805460ff60401b191668020000000000000000179055613132565b60028101805460ff60401b1916680300000000000000001790555b508061313d81613d22565b915050612f61565b50505050505050565b6007818154811061315e57600080fd5b60009182526020909120600390910201805460018201546002909201549092506001600160a01b03811690600160a01b810463ffffffff1690600160c01b900460ff1685565b6000600782815481106131b9576131b9613c51565b6000918252602082206003909102019150600282810154600160c01b900460ff16908111156131ea576131ea6134af565b146131f3575050565b600181015460028054908301546040516323b872dd60e01b81523060048201526001600160a01b039182166024820152604481018490529116906323b872dd90606401600060405180830381600087803b15801561325057600080fd5b505af1158015613264573d6000803e3d6000fd5b5050505060006006828154811061327d5761327d613c51565b906000526020600020906003020160020160086101000a81548160ff021916908360038111156132af576132af6134af565b021790555050600201805460ff60c01b1916600160c01b17905550565b828054828255906000526020600020908101928215613312579160200282015b8281111561331257825182906133029082613d8a565b50916020019190600101906132ec565b5061331e9291506133e1565b5090565b60408051610140810182526000808252602082018190529181018290526060808201819052608082015260a0810182905260c0810182905260e0810182905261010081018290529061012082015290565b604051806101200160405280600081526020016000815260200160608152602001600063ffffffff168152602001600063ffffffff16815260200160608152602001600063ffffffff168152602001600060038111156133d5576133d56134af565b81526020016000905290565b8082111561331e5760006133f582826133fe565b506001016133e1565b50805461340a90613be0565b6000825580601f1061341a575050565b601f016020900490600052602060002090810190613438919061343b565b50565b5b8082111561331e576000815560010161343c565b60006020828403121561346257600080fd5b5035919050565b6000815180845260005b8181101561348f57602081850181015186830182015201613473565b506000602082860101526020601f19601f83011685010191505092915050565b634e487b7160e01b600052602160045260246000fd5b60038110613438576134386134af565b6134de816134c5565b9052565b87815260e0602082015260006134fb60e0830189613469565b905063ffffffff808816604084015280871660608401528086166080840152613523856134c5565b8460a084015280841660c08401525098975050505050505050565b803563ffffffff8116811461355257600080fd5b919050565b60008060006060848603121561356c57600080fd5b8335925061357c6020850161353e565b915061358a6040850161353e565b90509250925092565b6001600160a01b038116811461343857600080fd5b600080604083850312156135bb57600080fd5b82356135c681613593565b946020939093013593505050565b600080604083850312156135e757600080fd5b50508035926020909101359150565b634e487b7160e01b600052604160045260246000fd5b604051601f8201601f1916810167ffffffffffffffff81118282101715613635576136356135f6565b604052919050565b600082601f83011261364e57600080fd5b813567ffffffffffffffff811115613668576136686135f6565b61367b601f8201601f191660200161360c565b81815284602083860101111561369057600080fd5b816020850160208301376000918101602001919091529392505050565b600080600080608085870312156136c357600080fd5b843567ffffffffffffffff808211156136db57600080fd5b6136e78883890161363d565b95506020915081870135818111156136fe57600080fd5b8701601f8101891361370f57600080fd5b803582811115613721576137216135f6565b8060051b61373085820161360c565b918252828101850191858101908c84111561374a57600080fd5b86850192505b83831015613786578235868111156137685760008081fd5b6137768e898389010161363d565b8352509186019190860190613750565b8099505050505050505061379c6040860161353e565b91506137aa6060860161353e565b905092959194509250565b60006020808301818452808551808352604092508286019150828160051b87010184880160005b838110156138af57603f1989840301855281516101408151855288820151898601528782015188860152606080830151828288015261381d83880182613469565b92505050608080830151868303828801526138388382613469565b9250505060a080830151613856828801826001600160a01b03169052565b505060c08281015163ffffffff9081169187019190915260e0808401518216908701526101008084015190911690860152610120918201519161389b818701846134d5565b5095880195935050908601906001016137dc565b509098975050505050505050565b600080604083850312156138d057600080fd5b823591506138e06020840161353e565b90509250929050565b600481106134de576134de6134af565b8581526020810185905263ffffffff84811660408301528316606082015260a0810161392860808301846138e9565b9695505050505050565b60006020828403121561394457600080fd5b813561394f81613593565b9392505050565b60006020808301818452808551808352604092508286019150828160051b87010184880160005b838110156138af57603f1989840301855281516101208151855288820151898601528782015181898701526139b482870182613469565b9150506060808301516139ce8288018263ffffffff169052565b505060808281015163ffffffff169086015260a080830151868303828801526139f78382613469565b9250505060c080830151613a128288018263ffffffff169052565b505060e080830151613a26828801826138e9565b50506101009182015191613a3c868201846134d5565b50958801959350509086019060010161397d565b602080825282518282018190526000919060409081850190600581811b8701840188860187805b85811015613b8e57603f198b85030187528251610100815186528a820151818c880152613aa682880182613469565b838c0151888203898e015280518083529193508d0191508c830190808a1b84018e01875b82811015613afd57601f19868303018452613ae6828651613469565b91508f850194508f84019350600181019050613aca565b5060609450848601519350613b19858b018563ffffffff169052565b60809450848601519350613b34858b018563ffffffff169052565b60a09450848601519350613b4f858b018563ffffffff169052565b60c09450848601519350613b65858b01856134d5565b60e09586015163ffffffff16999095019890985250505096890196935091880191600101613a77565b50919a9950505050505050505050565b858152602081018590526001600160a01b038416604082015263ffffffff8316606082015260a08101613bd0836134c5565b8260808301529695505050505050565b600181811c90821680613bf457607f821691505b602082108103613c1457634e487b7160e01b600052602260045260246000fd5b50919050565b60208082526017908201527f416374697669747920646f6573206e6f74206578697374000000000000000000604082015260600190565b634e487b7160e01b600052603260045260246000fd5b6020808252601690820152754163746976697479206973206e6f742061637469766560501b604082015260600190565b600060208284031215613ca957600080fd5b8151801515811461394f57600080fd5b600060208284031215613ccb57600080fd5b5051919050565b634e487b7160e01b600052601160045260246000fd5b63ffffffff81811683821601908082111561223057612230613cd2565b600060208284031215613d1757600080fd5b815161394f81613593565b600060018201613d3457613d34613cd2565b5060010190565b601f821115613d8557600081815260208120601f850160051c81016020861015613d625750805b601f850160051c820191505b81811015613d8157828155600101613d6e565b5050505b505050565b815167ffffffffffffffff811115613da457613da46135f6565b613db881613db28454613be0565b84613d3b565b602080601f831160018114613ded5760008415613dd55750858301515b600019600386901b1c1916600185901b178555613d81565b600085815260208120601f198616915b82811015613e1c57888601518255948401946001909101908401613dfd565b5085821015613e3a5787850151600019600388901b60f8161c191681555b5050505050600190811b01905550565b81810381811115613e5d57613e5d613cd2565b92915050565b634e487b7160e01b600052603160045260246000fd5b63ffffffff818116838216028082169190828114613e9957613e99613cd2565b505092915050565b600063ffffffff80841680613ec657634e487b7160e01b600052601260045260246000fd5b9216919091049291505056fea26469706673582212203d1c2f91aa8d18cfb7822303777962e7ba27b11ed73614e2b14d887ba6f7631264736f6c6343000814003360806040523480156200001157600080fd5b5060405162000b3038038062000b30833981016040819052620000349162000123565b818160036200004483826200021c565b5060046200005382826200021c565b5050505050620002e8565b634e487b7160e01b600052604160045260246000fd5b600082601f8301126200008657600080fd5b81516001600160401b0380821115620000a357620000a36200005e565b604051601f8301601f19908116603f01168101908282118183101715620000ce57620000ce6200005e565b81604052838152602092508683858801011115620000eb57600080fd5b600091505b838210156200010f5785820183015181830184015290820190620000f0565b600093810190920192909252949350505050565b600080604083850312156200013757600080fd5b82516001600160401b03808211156200014f57600080fd5b6200015d8683870162000074565b935060208501519150808211156200017457600080fd5b50620001838582860162000074565b9150509250929050565b600181811c90821680620001a257607f821691505b602082108103620001c357634e487b7160e01b600052602260045260246000fd5b50919050565b601f8211156200021757600081815260208120601f850160051c81016020861015620001f25750805b601f850160051c820191505b818110156200021357828155600101620001fe565b5050505b505050565b81516001600160401b038111156200023857620002386200005e565b62000250816200024984546200018d565b84620001c9565b602080601f8311600181146200028857600084156200026f5750858301515b600019600386901b1c1916600185901b17855562000213565b600085815260208120601f198616915b82811015620002b95788860151825594840194600190910190840162000298565b5085821015620002d85787850151600019600388901b60f8161c191681555b5050505050600190811b01905550565b61083880620002f86000396000f3fe608060405234801561001057600080fd5b50600436106100a95760003560e01c80633884d635116100715780633884d6351461012357806340c10f191461012d57806370a082311461014057806395d89b4114610169578063a9059cbb14610171578063dd62ed3e1461018457600080fd5b806306fdde03146100ae578063095ea7b3146100cc57806318160ddd146100ef57806323b872dd14610101578063313ce56714610114575b600080fd5b6100b66101bd565b6040516100c39190610682565b60405180910390f35b6100df6100da3660046106ec565b61024f565b60405190151581526020016100c3565b6002545b6040519081526020016100c3565b6100df61010f366004610716565b610269565b604051601281526020016100c3565b61012b61028d565b005b6100df61013b3660046106ec565b610328565b6100f361014e366004610752565b6001600160a01b031660009081526020819052604090205490565b6100b661033d565b6100df61017f3660046106ec565b61034c565b6100f3610192366004610774565b6001600160a01b03918216600090815260016020908152604080832093909416825291909152205490565b6060600380546101cc906107a7565b80601f01602080910402602001604051908101604052809291908181526020018280546101f8906107a7565b80156102455780601f1061021a57610100808354040283529160200191610245565b820191906000526020600020905b81548152906001019060200180831161022857829003601f168201915b5050505050905090565b60003361025d81858561035a565b60019150505b92915050565b60003361027785828561036c565b6102828585856103ea565b506001949350505050565b3360009081526005602052604090205460ff16156103005760405162461bcd60e51b815260206004820152602560248201527f5468697320757365722068617320636c61696d65642061697264726f7020616c604482015264726561647960d81b60648201526084015b60405180910390fd5b61030c33612710610449565b336000908152600560205260409020805460ff19166001179055565b60006103348383610449565b50600192915050565b6060600480546101cc906107a7565b60003361025d8185856103ea565b6103678383836001610483565b505050565b6001600160a01b0383811660009081526001602090815260408083209386168352929052205460001981146103e457818110156103d557604051637dc7a0d960e11b81526001600160a01b038416600482015260248101829052604481018390526064016102f7565b6103e484848484036000610483565b50505050565b6001600160a01b03831661041457604051634b637e8f60e11b8152600060048201526024016102f7565b6001600160a01b03821661043e5760405163ec442f0560e01b8152600060048201526024016102f7565b610367838383610558565b6001600160a01b0382166104735760405163ec442f0560e01b8152600060048201526024016102f7565b61047f60008383610558565b5050565b6001600160a01b0384166104ad5760405163e602df0560e01b8152600060048201526024016102f7565b6001600160a01b0383166104d757604051634a1406b160e11b8152600060048201526024016102f7565b6001600160a01b03808516600090815260016020908152604080832093871683529290522082905580156103e457826001600160a01b0316846001600160a01b03167f8c5be1e5ebec7d5bd14f71427d1e84f3dd0314c0f7b2291e5b200ac8c7c3b9258460405161054a91815260200190565b60405180910390a350505050565b6001600160a01b03831661058357806002600082825461057891906107e1565b909155506105f59050565b6001600160a01b038316600090815260208190526040902054818110156105d65760405163391434e360e21b81526001600160a01b038516600482015260248101829052604481018390526064016102f7565b6001600160a01b03841660009081526020819052604090209082900390555b6001600160a01b03821661061157600280548290039055610630565b6001600160a01b03821660009081526020819052604090208054820190555b816001600160a01b0316836001600160a01b03167fddf252ad1be2c89b69c2b068fc378daa952ba7f163c4a11628f55a4df523b3ef8360405161067591815260200190565b60405180910390a3505050565b600060208083528351808285015260005b818110156106af57858101830151858201604001528201610693565b506000604082860101526040601f19601f8301168501019250505092915050565b80356001600160a01b03811681146106e757600080fd5b919050565b600080604083850312156106ff57600080fd5b610708836106d0565b946020939093013593505050565b60008060006060848603121561072b57600080fd5b610734846106d0565b9250610742602085016106d0565b9150604084013590509250925092565b60006020828403121561076457600080fd5b61076d826106d0565b9392505050565b6000806040838503121561078757600080fd5b610790836106d0565b915061079e602084016106d0565b90509250929050565b600181811c908216806107bb57607f821691505b6020821081036107db57634e487b7160e01b600052602260045260246000fd5b50919050565b8082018082111561026357634e487b7160e01b600052601160045260246000fdfea2646970667358221220d02d19e3631d4a24b136595a1070edef08ef891484f8ab2dce929131f1dfaafa64736f6c6343000814003360806040523480156200001157600080fd5b50604051620012d5380380620012d5833981016040819052620000349162000129565b8181600062000044838262000222565b50600162000053828262000222565b5050600060065550620002ee915050565b634e487b7160e01b600052604160045260246000fd5b600082601f8301126200008c57600080fd5b81516001600160401b0380821115620000a957620000a962000064565b604051601f8301601f19908116603f01168101908282118183101715620000d457620000d462000064565b81604052838152602092508683858801011115620000f157600080fd5b600091505b83821015620001155785820183015181830184015290820190620000f6565b600093810190920192909252949350505050565b600080604083850312156200013d57600080fd5b82516001600160401b03808211156200015557600080fd5b62000163868387016200007a565b935060208501519150808211156200017a57600080fd5b5062000189858286016200007a565b9150509250929050565b600181811c90821680620001a857607f821691505b602082108103620001c957634e487b7160e01b600052602260045260246000fd5b50919050565b601f8211156200021d57600081815260208120601f850160051c81016020861015620001f85750805b601f850160051c820191505b81811015620002195782815560010162000204565b5050505b505050565b81516001600160401b038111156200023e576200023e62000064565b62000256816200024f845462000193565b84620001cf565b602080601f8311600181146200028e5760008415620002755750858301515b600019600386901b1c1916600185901b17855562000219565b600085815260208120601f198616915b82811015620002bf578886015182559484019460019091019084016200029e565b5085821015620002de5787850151600019600388901b60f8161c191681555b5050505050600190811b01905550565b610fd780620002fe6000396000f3fe608060405234801561001057600080fd5b50600436106100f55760003560e01c806370a0823111610097578063a5763a1f11610066578063a5763a1f146101f5578063b88d4fde14610208578063c87b56dd1461021b578063e985e9c51461022e57600080fd5b806370a08231146101b05780638802255f146101d157806395d89b41146101da578063a22cb465146101e257600080fd5b8063095ea7b3116100d3578063095ea7b31461016257806323b872dd1461017757806342842e0e1461018a5780636352211e1461019d57600080fd5b806301ffc9a7146100fa57806306fdde0314610122578063081812fc14610137575b600080fd5b61010d610108366004610c20565b610241565b60405190151581526020015b60405180910390f35b61012a610293565b6040516101199190610c8d565b61014a610145366004610ca0565b610325565b6040516001600160a01b039091168152602001610119565b610175610170366004610cd5565b61034e565b005b610175610185366004610cff565b61035d565b610175610198366004610cff565b6103ed565b61014a6101ab366004610ca0565b61040d565b6101c36101be366004610d3b565b610418565b604051908152602001610119565b6101c360065481565b61012a610460565b6101756101f0366004610d56565b61046f565b6101c3610203366004610d3b565b61047a565b610175610216366004610da8565b6104a6565b61012a610229366004610ca0565b6104bd565b61010d61023c366004610e84565b610532565b60006001600160e01b031982166380ac58cd60e01b148061027257506001600160e01b03198216635b5e139f60e01b145b8061028d57506301ffc9a760e01b6001600160e01b03198316145b92915050565b6060600080546102a290610eb7565b80601f01602080910402602001604051908101604052809291908181526020018280546102ce90610eb7565b801561031b5780601f106102f05761010080835404028352916020019161031b565b820191906000526020600020905b8154815290600101906020018083116102fe57829003601f168201915b5050505050905090565b600061033082610560565b506000828152600460205260409020546001600160a01b031661028d565b610359828233610599565b5050565b6001600160a01b03821661038c57604051633250574960e11b8152600060048201526024015b60405180910390fd5b60006103998383336105a6565b9050836001600160a01b0316816001600160a01b0316146103e7576040516364283d7b60e01b81526001600160a01b0380861660048301526024820184905282166044820152606401610383565b50505050565b610408838383604051806020016040528060008152506104a6565b505050565b600061028d82610560565b60006001600160a01b038216610444576040516322718ad960e21b815260006004820152602401610383565b506001600160a01b031660009081526003602052604090205490565b6060600180546102a290610eb7565b61035933838361069f565b60065460009061048a838261073e565b6006805490600061049a83610ef1565b90915550909392505050565b6104b184848461035d565b6103e7848484846107a3565b60606104c882610560565b5060006104e060408051602081019091526000815290565b90506000815111610500576040518060200160405280600081525061052b565b8061050a846108cc565b60405160200161051b929190610f18565b6040516020818303038152906040525b9392505050565b6001600160a01b03918216600090815260056020908152604080832093909416825291909152205460ff1690565b6000818152600260205260408120546001600160a01b03168061028d57604051637e27328960e01b815260048101849052602401610383565b610408838383600161095f565b6000828152600260205260408120546001600160a01b03908116908316156105d3576105d3818486610a65565b6001600160a01b03811615610611576105f060008560008061095f565b6001600160a01b038116600090815260036020526040902080546000190190555b6001600160a01b03851615610640576001600160a01b0385166000908152600360205260409020805460010190555b60008481526002602052604080822080546001600160a01b0319166001600160a01b0389811691821790925591518793918516917fddf252ad1be2c89b69c2b068fc378daa952ba7f163c4a11628f55a4df523b3ef91a4949350505050565b6001600160a01b0382166106d157604051630b61174360e31b81526001600160a01b0383166004820152602401610383565b6001600160a01b03838116600081815260056020908152604080832094871680845294825291829020805460ff191686151590811790915591519182527f17307eab39ab6107e8899845ad3d59bd9653f200f220920489ca2b5937696c31910160405180910390a3505050565b6001600160a01b03821661076857604051633250574960e11b815260006004820152602401610383565b6000610776838360006105a6565b90506001600160a01b03811615610408576040516339e3563760e11b815260006004820152602401610383565b6001600160a01b0383163b156103e757604051630a85bd0160e11b81526001600160a01b0384169063150b7a02906107e5903390889087908790600401610f47565b6020604051808303816000875af1925050508015610820575060408051601f3d908101601f1916820190925261081d91810190610f84565b60015b610889573d80801561084e576040519150601f19603f3d011682016040523d82523d6000602084013e610853565b606091505b50805160000361088157604051633250574960e11b81526001600160a01b0385166004820152602401610383565b805181602001fd5b6001600160e01b03198116630a85bd0160e11b146108c557604051633250574960e11b81526001600160a01b0385166004820152602401610383565b5050505050565b606060006108d983610ac9565b600101905060008167ffffffffffffffff8111156108f9576108f9610d92565b6040519080825280601f01601f191660200182016040528015610923576020820181803683370190505b5090508181016020015b600019016f181899199a1a9b1b9c1cb0b131b232b360811b600a86061a8153600a850494508461092d57509392505050565b808061097357506001600160a01b03821615155b15610a3557600061098384610560565b90506001600160a01b038316158015906109af5750826001600160a01b0316816001600160a01b031614155b80156109c257506109c08184610532565b155b156109eb5760405163a9fbf51f60e01b81526001600160a01b0384166004820152602401610383565b8115610a335783856001600160a01b0316826001600160a01b03167f8c5be1e5ebec7d5bd14f71427d1e84f3dd0314c0f7b2291e5b200ac8c7c3b92560405160405180910390a45b505b5050600090815260046020526040902080546001600160a01b0319166001600160a01b0392909216919091179055565b610a70838383610ba1565b610408576001600160a01b038316610a9e57604051637e27328960e01b815260048101829052602401610383565b60405163177e802f60e01b81526001600160a01b038316600482015260248101829052604401610383565b60008072184f03e93ff9f4daa797ed6e38ed64bf6a1f0160401b8310610b085772184f03e93ff9f4daa797ed6e38ed64bf6a1f0160401b830492506040015b6d04ee2d6d415b85acef81000000008310610b34576d04ee2d6d415b85acef8100000000830492506020015b662386f26fc100008310610b5257662386f26fc10000830492506010015b6305f5e1008310610b6a576305f5e100830492506008015b6127108310610b7e57612710830492506004015b60648310610b90576064830492506002015b600a831061028d5760010192915050565b60006001600160a01b03831615801590610bff5750826001600160a01b0316846001600160a01b03161480610bdb5750610bdb8484610532565b80610bff57506000828152600460205260409020546001600160a01b038481169116145b949350505050565b6001600160e01b031981168114610c1d57600080fd5b50565b600060208284031215610c3257600080fd5b813561052b81610c07565b60005b83811015610c58578181015183820152602001610c40565b50506000910152565b60008151808452610c79816020860160208601610c3d565b601f01601f19169290920160200192915050565b60208152600061052b6020830184610c61565b600060208284031215610cb257600080fd5b5035919050565b80356001600160a01b0381168114610cd057600080fd5b919050565b60008060408385031215610ce857600080fd5b610cf183610cb9565b946020939093013593505050565b600080600060608486031215610d1457600080fd5b610d1d84610cb9565b9250610d2b60208501610cb9565b9150604084013590509250925092565b600060208284031215610d4d57600080fd5b61052b82610cb9565b60008060408385031215610d6957600080fd5b610d7283610cb9565b915060208301358015158114610d8757600080fd5b809150509250929050565b634e487b7160e01b600052604160045260246000fd5b60008060008060808587031215610dbe57600080fd5b610dc785610cb9565b9350610dd560208601610cb9565b925060408501359150606085013567ffffffffffffffff80821115610df957600080fd5b818701915087601f830112610e0d57600080fd5b813581811115610e1f57610e1f610d92565b604051601f8201601f19908116603f01168101908382118183101715610e4757610e47610d92565b816040528281528a6020848701011115610e6057600080fd5b82602086016020830137600060208483010152809550505050505092959194509250565b60008060408385031215610e9757600080fd5b610ea083610cb9565b9150610eae60208401610cb9565b90509250929050565b600181811c90821680610ecb57607f821691505b602082108103610eeb57634e487b7160e01b600052602260045260246000fd5b50919050565b600060018201610f1157634e487b7160e01b600052601160045260246000fd5b5060010190565b60008351610f2a818460208801610c3d565b835190830190610f3e818360208801610c3d565b01949350505050565b6001600160a01b0385811682528416602082015260408101839052608060608201819052600090610f7a90830184610c61565b9695505050505050565b600060208284031215610f9657600080fd5b815161052b81610c0756fea264697066735822122092814fa77708b50b5362921ba0d54c0039e98d56f13470bc204b60cc3916d1fe64736f6c63430008140033",
  "linkReferences": {},
  "deployedLinkReferences": {}
}