{
  "_format": "hh-sol-artifact-1",
  "contractName": "Lottery",
  "sourceName": "contracts/Lottery.sol",
  "abi": [
    {
      "inputs": [],
      "stateMutability": "nonpayable",
      "type": "constructor"
    },
    {
      "inputs": [],
      "name": "PLAY_AMOUNT",
      "outputs": [
        {
          "internalType": "uint256",
          "name": "",
          "type": "uint256"
        }
      ],
      "stateMutability": "view",
      "type": "function"
    },
    {
      "inputs": [],
      "name": "draw",
      "outputs": [],
      "stateMutability": "nonpayable",
      "type": "function"
    },
    {
      "inputs": [],
      "name": "getPlayerNumber",
      "outputs": [
        {
          "internalType": "uint256",
          "name": "",
          "type": "uint256"
        }
      ],
      "stateMutability": "view",
      "type": "function"
    },
    {
      "inputs": [],
      "name": "manager",
      "outputs": [
        {
          "internalType": "address",
          "name": "",
          "type": "address"
        }
      ],
      "stateMutability": "view",
      "type": "function"
    },
    {
      "inputs": [],
      "name": "myERC20",
      "outputs": [
        {
          "internalType": "contract MyERC20",
          "name": "",
          "type": "address"
        }
      ],
      "stateMutability": "view",
      "type": "function"
    },
    {
      "inputs": [],
      "name": "play",
      "outputs": [],
      "stateMutability": "nonpayable",
      "type": "function"
    },
    {
      "inputs": [
        {
          "internalType": "uint256",
          "name": "",
          "type": "uint256"
        }
      ],
      "name": "players",
      "outputs": [
        {
          "internalType": "address",
          "name": "",
          "type": "address"
        }
      ],
      "stateMutability": "view",
      "type": "function"
    },
    {
      "inputs": [],
      "name": "refund",
      "outputs": [],
      "stateMutability": "nonpayable",
      "type": "function"
    },
    {
      "inputs": [],
      "name": "totalAmount",
      "outputs": [
        {
          "internalType": "uint256",
          "name": "",
          "type": "uint256"
        }
      ],
      "stateMutability": "view",
      "type": "function"
    },
    {
      "inputs": [],
      "name": "winner",
      "outputs": [
        {
          "internalType": "address",
          "name": "",
          "type": "address"
        }
      ],
      "stateMutability": "view",
      "type": "function"
    }
  ],
  "bytecode": "0x60806040523480156200001157600080fd5b506040516200002090620000d0565b6200002b906200018f565b604051809103906000f08015801562000048573d6000803e3d6000fd5b50600460006101000a81548173ffffffffffffffffffffffffffffffffffffffff021916908373ffffffffffffffffffffffffffffffffffffffff16021790555033600160006101000a81548173ffffffffffffffffffffffffffffffffffffffff021916908373ffffffffffffffffffffffffffffffffffffffff160217905550620001c6565b611638806200106383390190565b600082825260208201905092915050565b7f5a4a55546f6b656e000000000000000000000000000000000000000000000000600082015250565b600062000127600883620000de565b91506200013482620000ef565b602082019050919050565b7f5a4a55546f6b656e53796d626f6c000000000000000000000000000000000000600082015250565b600062000177600e83620000de565b915062000184826200013f565b602082019050919050565b60006040820190508181036000830152620001aa8162000118565b90508181036020830152620001bf8162000168565b9050919050565b610e8d80620001d66000396000f3fe608060405234801561001057600080fd5b506004361061009e5760003560e01c80636d3739c4116100665780636d3739c41461011157806393e84cd91461012f578063dfbf53ae14610139578063e6978b5014610157578063f71d96cb146101755761009e565b80630eecae21146100a357806313eaac6c146100ad5780631a39d8ef146100cb578063481c6a75146100e9578063590e1ae314610107575b600080fd5b6100ab6101a5565b005b6100b56104cd565b6040516100c291906108cc565b60405180910390f35b6100d36104da565b6040516100e091906108cc565b60405180910390f35b6100f16104e0565b6040516100fe9190610928565b60405180910390f35b61010f610506565b005b61011961067c565b60405161012691906109a2565b60405180910390f35b6101376106a2565b005b61014161080a565b60405161014e9190610928565b60405180910390f35b61015f610830565b60405161016c91906108cc565b60405180910390f35b61018f600480360381019061018a91906109ee565b610836565b60405161019c9190610928565b60405180910390f35b600160009054906101000a900473ffffffffffffffffffffffffffffffffffffffff1673ffffffffffffffffffffffffffffffffffffffff163373ffffffffffffffffffffffffffffffffffffffff16146101ff57600080fd5b600060028054905003610247576040517f08c379a000000000000000000000000000000000000000000000000000000000815260040161023e90610a78565b60405180910390fd5b6000423060028054905060405160200161026393929190610b01565b6040516020818303038152906040528051906020012060001c90506000600280549050826102919190610b6d565b9050600281815481106102a7576102a6610b9e565b5b9060005260206000200160009054906101000a900473ffffffffffffffffffffffffffffffffffffffff16600360006101000a81548173ffffffffffffffffffffffffffffffffffffffff021916908373ffffffffffffffffffffffffffffffffffffffff1602179055506000600460009054906101000a900473ffffffffffffffffffffffffffffffffffffffff1673ffffffffffffffffffffffffffffffffffffffff1663a9059cbb600360009054906101000a900473ffffffffffffffffffffffffffffffffffffffff16600460009054906101000a900473ffffffffffffffffffffffffffffffffffffffff1673ffffffffffffffffffffffffffffffffffffffff166370a08231306040518263ffffffff1660e01b81526004016103d09190610928565b602060405180830381865afa1580156103ed573d6000803e3d6000fd5b505050506040513d601f19601f820116820180604052508101906104119190610be2565b6040518363ffffffff1660e01b815260040161042e929190610c0f565b6020604051808303816000875af115801561044d573d6000803e3d6000fd5b505050506040513d601f19601f820116820180604052508101906104719190610c70565b9050806104b3576040517f08c379a00000000000000000000000000000000000000000000000000000000081526004016104aa90610ce9565b60405180910390fd5b600260006104c19190610875565b60008081905550505050565b6000600280549050905090565b60005481565b600160009054906101000a900473ffffffffffffffffffffffffffffffffffffffff1681565b600160009054906101000a900473ffffffffffffffffffffffffffffffffffffffff1673ffffffffffffffffffffffffffffffffffffffff163373ffffffffffffffffffffffffffffffffffffffff161461056057600080fd5b60005b60028054905081101561066457600460009054906101000a900473ffffffffffffffffffffffffffffffffffffffff1673ffffffffffffffffffffffffffffffffffffffff1663a9059cbb600283815481106105c2576105c1610b9e565b5b9060005260206000200160009054906101000a900473ffffffffffffffffffffffffffffffffffffffff166101f46040518363ffffffff1660e01b815260040161060d929190610c0f565b6020604051808303816000875af115801561062c573d6000803e3d6000fd5b505050506040513d601f19601f820116820180604052508101906106509190610c70565b50808061065c90610d38565b915050610563565b50600260006106739190610875565b60008081905550565b600460009054906101000a900473ffffffffffffffffffffffffffffffffffffffff1681565b6000600460009054906101000a900473ffffffffffffffffffffffffffffffffffffffff1673ffffffffffffffffffffffffffffffffffffffff166323b872dd33306101f46040518463ffffffff1660e01b815260040161070593929190610d80565b6020604051808303816000875af1158015610724573d6000803e3d6000fd5b505050506040513d601f19601f820116820180604052508101906107489190610c70565b90508061078a576040517f08c379a000000000000000000000000000000000000000000000000000000000815260040161078190610e03565b60405180910390fd5b6002339080600181540180825580915050600190039060005260206000200160009091909190916101000a81548173ffffffffffffffffffffffffffffffffffffffff021916908373ffffffffffffffffffffffffffffffffffffffff1602179055506101f46000808282546108009190610e23565b9250508190555050565b600360009054906101000a900473ffffffffffffffffffffffffffffffffffffffff1681565b6101f481565b6002818154811061084657600080fd5b906000526020600020016000915054906101000a900473ffffffffffffffffffffffffffffffffffffffff1681565b50805460008255906000526020600020908101906108939190610896565b50565b5b808211156108af576000816000905550600101610897565b5090565b6000819050919050565b6108c6816108b3565b82525050565b60006020820190506108e160008301846108bd565b92915050565b600073ffffffffffffffffffffffffffffffffffffffff82169050919050565b6000610912826108e7565b9050919050565b61092281610907565b82525050565b600060208201905061093d6000830184610919565b92915050565b6000819050919050565b600061096861096361095e846108e7565b610943565b6108e7565b9050919050565b600061097a8261094d565b9050919050565b600061098c8261096f565b9050919050565b61099c81610981565b82525050565b60006020820190506109b76000830184610993565b92915050565b600080fd5b6109cb816108b3565b81146109d657600080fd5b50565b6000813590506109e8816109c2565b92915050565b600060208284031215610a0457610a036109bd565b5b6000610a12848285016109d9565b91505092915050565b600082825260208201905092915050565b7f4e6f20706c6179657220696e766f6c76656420696e207468652067616d650000600082015250565b6000610a62601e83610a1b565b9150610a6d82610a2c565b602082019050919050565b60006020820190508181036000830152610a9181610a55565b9050919050565b6000819050919050565b610ab3610aae826108b3565b610a98565b82525050565b60008160601b9050919050565b6000610ad182610ab9565b9050919050565b6000610ae382610ac6565b9050919050565b610afb610af682610907565b610ad8565b82525050565b6000610b0d8286610aa2565b602082019150610b1d8285610aea565b601482019150610b2d8284610aa2565b602082019150819050949350505050565b7f4e487b7100000000000000000000000000000000000000000000000000000000600052601260045260246000fd5b6000610b78826108b3565b9150610b83836108b3565b925082610b9357610b92610b3e565b5b828206905092915050565b7f4e487b7100000000000000000000000000000000000000000000000000000000600052603260045260246000fd5b600081519050610bdc816109c2565b92915050565b600060208284031215610bf857610bf76109bd565b5b6000610c0684828501610bcd565b91505092915050565b6000604082019050610c246000830185610919565b610c3160208301846108bd565b9392505050565b60008115159050919050565b610c4d81610c38565b8114610c5857600080fd5b50565b600081519050610c6a81610c44565b92915050565b600060208284031215610c8657610c856109bd565b5b6000610c9484828501610c5b565b91505092915050565b7f5472616e73666572206661696c65640000000000000000000000000000000000600082015250565b6000610cd3600f83610a1b565b9150610cde82610c9d565b602082019050919050565b60006020820190508181036000830152610d0281610cc6565b9050919050565b7f4e487b7100000000000000000000000000000000000000000000000000000000600052601160045260246000fd5b6000610d43826108b3565b91507fffffffffffffffffffffffffffffffffffffffffffffffffffffffffffffffff8203610d7557610d74610d09565b5b600182019050919050565b6000606082019050610d956000830186610919565b610da26020830185610919565b610daf60408301846108bd565b949350505050565b7f5472616e7366657246726f6d206661696c656400000000000000000000000000600082015250565b6000610ded601383610a1b565b9150610df882610db7565b602082019050919050565b60006020820190508181036000830152610e1c81610de0565b9050919050565b6000610e2e826108b3565b9150610e39836108b3565b9250828201905080821115610e5157610e50610d09565b5b9291505056fea2646970667358221220989ecfac0ab02ec185017a337b3cd858d9c7ddcb4467d472d4dc96c4399c8a5064736f6c6343000814003360806040523480156200001157600080fd5b5060405162001638380380620016388339818101604052810190620000379190620001fa565b818181600390816200004a9190620004ca565b5080600490816200005c9190620004ca565b5050505050620005b1565b6000604051905090565b600080fd5b600080fd5b600080fd5b600080fd5b6000601f19601f8301169050919050565b7f4e487b7100000000000000000000000000000000000000000000000000000000600052604160045260246000fd5b620000d08262000085565b810181811067ffffffffffffffff82111715620000f257620000f162000096565b5b80604052505050565b60006200010762000067565b9050620001158282620000c5565b919050565b600067ffffffffffffffff82111562000138576200013762000096565b5b620001438262000085565b9050602081019050919050565b60005b838110156200017057808201518184015260208101905062000153565b60008484015250505050565b6000620001936200018d846200011a565b620000fb565b905082815260208101848484011115620001b257620001b162000080565b5b620001bf84828562000150565b509392505050565b600082601f830112620001df57620001de6200007b565b5b8151620001f18482602086016200017c565b91505092915050565b6000806040838503121562000214576200021362000071565b5b600083015167ffffffffffffffff81111562000235576200023462000076565b5b6200024385828601620001c7565b925050602083015167ffffffffffffffff81111562000267576200026662000076565b5b6200027585828601620001c7565b9150509250929050565b600081519050919050565b7f4e487b7100000000000000000000000000000000000000000000000000000000600052602260045260246000fd5b60006002820490506001821680620002d257607f821691505b602082108103620002e857620002e76200028a565b5b50919050565b60008190508160005260206000209050919050565b60006020601f8301049050919050565b600082821b905092915050565b600060088302620003527fffffffffffffffffffffffffffffffffffffffffffffffffffffffffffffffff8262000313565b6200035e868362000313565b95508019841693508086168417925050509392505050565b6000819050919050565b6000819050919050565b6000620003ab620003a56200039f8462000376565b62000380565b62000376565b9050919050565b6000819050919050565b620003c7836200038a565b620003df620003d682620003b2565b84845462000320565b825550505050565b600090565b620003f6620003e7565b62000403818484620003bc565b505050565b5b818110156200042b576200041f600082620003ec565b60018101905062000409565b5050565b601f8211156200047a576200044481620002ee565b6200044f8462000303565b810160208510156200045f578190505b620004776200046e8562000303565b83018262000408565b50505b505050565b600082821c905092915050565b60006200049f600019846008026200047f565b1980831691505092915050565b6000620004ba83836200048c565b9150826002028217905092915050565b620004d5826200027f565b67ffffffffffffffff811115620004f157620004f062000096565b5b620004fd8254620002b9565b6200050a8282856200042f565b600060209050601f8311600181146200054257600084156200052d578287015190505b620005398582620004ac565b865550620005a9565b601f1984166200055286620002ee565b60005b828110156200057c5784890151825560018201915060208501945060208101905062000555565b868310156200059c578489015162000598601f8916826200048c565b8355505b6001600288020188555050505b505050505050565b61107780620005c16000396000f3fe608060405234801561001057600080fd5b506004361061009e5760003560e01c80633884d635116100665780633884d6351461015d57806370a082311461016757806395d89b4114610197578063a9059cbb146101b5578063dd62ed3e146101e55761009e565b806306fdde03146100a3578063095ea7b3146100c157806318160ddd146100f157806323b872dd1461010f578063313ce5671461013f575b600080fd5b6100ab610215565b6040516100b89190610c39565b60405180910390f35b6100db60048036038101906100d69190610cf4565b6102a7565b6040516100e89190610d4f565b60405180910390f35b6100f96102ca565b6040516101069190610d79565b60405180910390f35b61012960048036038101906101249190610d94565b6102d4565b6040516101369190610d4f565b60405180910390f35b610147610303565b6040516101549190610e03565b60405180910390f35b61016561030c565b005b610181600480360381019061017c9190610e1e565b610405565b60405161018e9190610d79565b60405180910390f35b61019f61044d565b6040516101ac9190610c39565b60405180910390f35b6101cf60048036038101906101ca9190610cf4565b6104df565b6040516101dc9190610d4f565b60405180910390f35b6101ff60048036038101906101fa9190610e4b565b610502565b60405161020c9190610d79565b60405180910390f35b60606003805461022490610eba565b80601f016020809104026020016040519081016040528092919081815260200182805461025090610eba565b801561029d5780601f106102725761010080835404028352916020019161029d565b820191906000526020600020905b81548152906001019060200180831161028057829003601f168201915b5050505050905090565b6000806102b2610589565b90506102bf818585610591565b600191505092915050565b6000600254905090565b6000806102df610589565b90506102ec8582856105a3565b6102f7858585610637565b60019150509392505050565b60006012905090565b60001515600560003373ffffffffffffffffffffffffffffffffffffffff1673ffffffffffffffffffffffffffffffffffffffff16815260200190815260200160002060009054906101000a900460ff1615151461039f576040517f08c379a000000000000000000000000000000000000000000000000000000000815260040161039690610f5d565b60405180910390fd5b6103ab3361271061072b565b6001600560003373ffffffffffffffffffffffffffffffffffffffff1673ffffffffffffffffffffffffffffffffffffffff16815260200190815260200160002060006101000a81548160ff021916908315150217905550565b60008060008373ffffffffffffffffffffffffffffffffffffffff1673ffffffffffffffffffffffffffffffffffffffff168152602001908152602001600020549050919050565b60606004805461045c90610eba565b80601f016020809104026020016040519081016040528092919081815260200182805461048890610eba565b80156104d55780601f106104aa576101008083540402835291602001916104d5565b820191906000526020600020905b8154815290600101906020018083116104b857829003601f168201915b5050505050905090565b6000806104ea610589565b90506104f7818585610637565b600191505092915050565b6000600160008473ffffffffffffffffffffffffffffffffffffffff1673ffffffffffffffffffffffffffffffffffffffff16815260200190815260200160002060008373ffffffffffffffffffffffffffffffffffffffff1673ffffffffffffffffffffffffffffffffffffffff16815260200190815260200160002054905092915050565b600033905090565b61059e83838360016107ad565b505050565b60006105af8484610502565b90507fffffffffffffffffffffffffffffffffffffffffffffffffffffffffffffffff81146106315781811015610621578281836040517ffb8f41b200000000000000000000000000000000000000000000000000000000815260040161061893929190610f8c565b60405180910390fd5b610630848484840360006107ad565b5b50505050565b600073ffffffffffffffffffffffffffffffffffffffff168373ffffffffffffffffffffffffffffffffffffffff16036106a95760006040517f96c6fd1e0000000000000000000000000000000000000000000000000000000081526004016106a09190610fc3565b60405180910390fd5b600073ffffffffffffffffffffffffffffffffffffffff168273ffffffffffffffffffffffffffffffffffffffff160361071b5760006040517fec442f050000000000000000000000000000000000000000000000000000000081526004016107129190610fc3565b60405180910390fd5b610726838383610984565b505050565b600073ffffffffffffffffffffffffffffffffffffffff168273ffffffffffffffffffffffffffffffffffffffff160361079d5760006040517fec442f050000000000000000000000000000000000000000000000000000000081526004016107949190610fc3565b60405180910390fd5b6107a960008383610984565b5050565b600073ffffffffffffffffffffffffffffffffffffffff168473ffffffffffffffffffffffffffffffffffffffff160361081f5760006040517fe602df050000000000000000000000000000000000000000000000000000000081526004016108169190610fc3565b60405180910390fd5b600073ffffffffffffffffffffffffffffffffffffffff168373ffffffffffffffffffffffffffffffffffffffff16036108915760006040517f94280d620000000000000000000000000000000000000000000000000000000081526004016108889190610fc3565b60405180910390fd5b81600160008673ffffffffffffffffffffffffffffffffffffffff1673ffffffffffffffffffffffffffffffffffffffff16815260200190815260200160002060008573ffffffffffffffffffffffffffffffffffffffff1673ffffffffffffffffffffffffffffffffffffffff16815260200190815260200160002081905550801561097e578273ffffffffffffffffffffffffffffffffffffffff168473ffffffffffffffffffffffffffffffffffffffff167f8c5be1e5ebec7d5bd14f71427d1e84f3dd0314c0f7b2291e5b200ac8c7c3b925846040516109759190610d79565b60405180910390a35b50505050565b600073ffffffffffffffffffffffffffffffffffffffff168373ffffffffffffffffffffffffffffffffffffffff16036109d65780600260008282546109ca919061100d565b92505081905550610aa9565b60008060008573ffffffffffffffffffffffffffffffffffffffff1673ffffffffffffffffffffffffffffffffffffffff16815260200190815260200160002054905081811015610a62578381836040517fe450d38c000000000000000000000000000000000000000000000000000000008152600401610a5993929190610f8c565b60405180910390fd5b8181036000808673ffffffffffffffffffffffffffffffffffffffff1673ffffffffffffffffffffffffffffffffffffffff16815260200190815260200160002081905550505b600073ffffffffffffffffffffffffffffffffffffffff168273ffffffffffffffffffffffffffffffffffffffff1603610af25780600260008282540392505081905550610b3f565b806000808473ffffffffffffffffffffffffffffffffffffffff1673ffffffffffffffffffffffffffffffffffffffff168152602001908152602001600020600082825401925050819055505b8173ffffffffffffffffffffffffffffffffffffffff168373ffffffffffffffffffffffffffffffffffffffff167fddf252ad1be2c89b69c2b068fc378daa952ba7f163c4a11628f55a4df523b3ef83604051610b9c9190610d79565b60405180910390a3505050565b600081519050919050565b600082825260208201905092915050565b60005b83811015610be3578082015181840152602081019050610bc8565b60008484015250505050565b6000601f19601f8301169050919050565b6000610c0b82610ba9565b610c158185610bb4565b9350610c25818560208601610bc5565b610c2e81610bef565b840191505092915050565b60006020820190508181036000830152610c538184610c00565b905092915050565b600080fd5b600073ffffffffffffffffffffffffffffffffffffffff82169050919050565b6000610c8b82610c60565b9050919050565b610c9b81610c80565b8114610ca657600080fd5b50565b600081359050610cb881610c92565b92915050565b6000819050919050565b610cd181610cbe565b8114610cdc57600080fd5b50565b600081359050610cee81610cc8565b92915050565b60008060408385031215610d0b57610d0a610c5b565b5b6000610d1985828601610ca9565b9250506020610d2a85828601610cdf565b9150509250929050565b60008115159050919050565b610d4981610d34565b82525050565b6000602082019050610d646000830184610d40565b92915050565b610d7381610cbe565b82525050565b6000602082019050610d8e6000830184610d6a565b92915050565b600080600060608486031215610dad57610dac610c5b565b5b6000610dbb86828701610ca9565b9350506020610dcc86828701610ca9565b9250506040610ddd86828701610cdf565b9150509250925092565b600060ff82169050919050565b610dfd81610de7565b82525050565b6000602082019050610e186000830184610df4565b92915050565b600060208284031215610e3457610e33610c5b565b5b6000610e4284828501610ca9565b91505092915050565b60008060408385031215610e6257610e61610c5b565b5b6000610e7085828601610ca9565b9250506020610e8185828601610ca9565b9150509250929050565b7f4e487b7100000000000000000000000000000000000000000000000000000000600052602260045260246000fd5b60006002820490506001821680610ed257607f821691505b602082108103610ee557610ee4610e8b565b5b50919050565b7f5468697320757365722068617320636c61696d65642061697264726f7020616c60008201527f7265616479000000000000000000000000000000000000000000000000000000602082015250565b6000610f47602583610bb4565b9150610f5282610eeb565b604082019050919050565b60006020820190508181036000830152610f7681610f3a565b9050919050565b610f8681610c80565b82525050565b6000606082019050610fa16000830186610f7d565b610fae6020830185610d6a565b610fbb6040830184610d6a565b949350505050565b6000602082019050610fd86000830184610f7d565b92915050565b7f4e487b7100000000000000000000000000000000000000000000000000000000600052601160045260246000fd5b600061101882610cbe565b915061102383610cbe565b925082820190508082111561103b5761103a610fde565b5b9291505056fea2646970667358221220f648425e4e5336fdbcf5c412660e5cfc452f405b64937d7e5d18a7c309e74ce064736f6c63430008140033",
  "linkReferences": {},
  "deployedLinkReferences": {}
}