{
  "_format": "hh-sol-artifact-1",
  "contractName": "MyERC721",
  "sourceName": "contracts/MyERC721.sol",
  "abi": [
    {
      "inputs": [
        {
          "internalType": "string",
          "name": "name",
          "type": "string"
        },
        {
          "internalType": "string",
          "name": "symbol",
          "type": "string"
        }
      ],
      "stateMutability": "nonpayable",
      "type": "constructor"
    },
    {
      "inputs": [
        {
          "internalType": "address",
          "name": "sender",
          "type": "address"
        },
        {
          "internalType": "uint256",
          "name": "tokenId",
          "type": "uint256"
        },
        {
          "internalType": "address",
          "name": "owner",
          "type": "address"
        }
      ],
      "name": "ERC721IncorrectOwner",
      "type": "error"
    },
    {
      "inputs": [
        {
          "internalType": "address",
          "name": "operator",
          "type": "address"
        },
        {
          "internalType": "uint256",
          "name": "tokenId",
          "type": "uint256"
        }
      ],
      "name": "ERC721InsufficientApproval",
      "type": "error"
    },
    {
      "inputs": [
        {
          "internalType": "address",
          "name": "approver",
          "type": "address"
        }
      ],
      "name": "ERC721InvalidApprover",
      "type": "error"
    },
    {
      "inputs": [
        {
          "internalType": "address",
          "name": "operator",
          "type": "address"
        }
      ],
      "name": "ERC721InvalidOperator",
      "type": "error"
    },
    {
      "inputs": [
        {
          "internalType": "address",
          "name": "owner",
          "type": "address"
        }
      ],
      "name": "ERC721InvalidOwner",
      "type": "error"
    },
    {
      "inputs": [
        {
          "internalType": "address",
          "name": "receiver",
          "type": "address"
        }
      ],
      "name": "ERC721InvalidReceiver",
      "type": "error"
    },
    {
      "inputs": [
        {
          "internalType": "address",
          "name": "sender",
          "type": "address"
        }
      ],
      "name": "ERC721InvalidSender",
      "type": "error"
    },
    {
      "inputs": [
        {
          "internalType": "uint256",
          "name": "tokenId",
          "type": "uint256"
        }
      ],
      "name": "ERC721NonexistentToken",
      "type": "error"
    },
    {
      "anonymous": false,
      "inputs": [
        {
          "indexed": true,
          "internalType": "address",
          "name": "owner",
          "type": "address"
        },
        {
          "indexed": true,
          "internalType": "address",
          "name": "approved",
          "type": "address"
        },
        {
          "indexed": true,
          "internalType": "uint256",
          "name": "tokenId",
          "type": "uint256"
        }
      ],
      "name": "Approval",
      "type": "event"
    },
    {
      "anonymous": false,
      "inputs": [
        {
          "indexed": true,
          "internalType": "address",
          "name": "owner",
          "type": "address"
        },
        {
          "indexed": true,
          "internalType": "address",
          "name": "operator",
          "type": "address"
        },
        {
          "indexed": false,
          "internalType": "bool",
          "name": "approved",
          "type": "bool"
        }
      ],
      "name": "ApprovalForAll",
      "type": "event"
    },
    {
      "anonymous": false,
      "inputs": [
        {
          "indexed": true,
          "internalType": "address",
          "name": "from",
          "type": "address"
        },
        {
          "indexed": true,
          "internalType": "address",
          "name": "to",
          "type": "address"
        },
        {
          "indexed": true,
          "internalType": "uint256",
          "name": "tokenId",
          "type": "uint256"
        }
      ],
      "name": "Transfer",
      "type": "event"
    },
    {
      "inputs": [
        {
          "internalType": "address",
          "name": "to",
          "type": "address"
        },
        {
          "internalType": "uint256",
          "name": "tokenId",
          "type": "uint256"
        }
      ],
      "name": "approve",
      "outputs": [],
      "stateMutability": "nonpayable",
      "type": "function"
    },
    {
      "inputs": [
        {
          "internalType": "address",
          "name": "owner",
          "type": "address"
        }
      ],
      "name": "balanceOf",
      "outputs": [
        {
          "internalType": "uint256",
          "name": "",
          "type": "uint256"
        }
      ],
      "stateMutability": "view",
      "type": "function"
    },
    {
      "inputs": [
        {
          "internalType": "address",
          "name": "player",
          "type": "address"
        }
      ],
      "name": "createTicket",
      "outputs": [
        {
          "internalType": "uint256",
          "name": "",
          "type": "uint256"
        }
      ],
      "stateMutability": "nonpayable",
      "type": "function"
    },
    {
      "inputs": [
        {
          "internalType": "uint256",
          "name": "tokenId",
          "type": "uint256"
        }
      ],
      "name": "getApproved",
      "outputs": [
        {
          "internalType": "address",
          "name": "",
          "type": "address"
        }
      ],
      "stateMutability": "view",
      "type": "function"
    },
    {
      "inputs": [
        {
          "internalType": "address",
          "name": "owner",
          "type": "address"
        },
        {
          "internalType": "address",
          "name": "operator",
          "type": "address"
        }
      ],
      "name": "isApprovedForAll",
      "outputs": [
        {
          "internalType": "bool",
          "name": "",
          "type": "bool"
        }
      ],
      "stateMutability": "view",
      "type": "function"
    },
    {
      "inputs": [],
      "name": "name",
      "outputs": [
        {
          "internalType": "string",
          "name": "",
          "type": "string"
        }
      ],
      "stateMutability": "view",
      "type": "function"
    },
    {
      "inputs": [
        {
          "internalType": "uint256",
          "name": "tokenId",
          "type": "uint256"
        }
      ],
      "name": "ownerOf",
      "outputs": [
        {
          "internalType": "address",
          "name": "",
          "type": "address"
        }
      ],
      "stateMutability": "view",
      "type": "function"
    },
    {
      "inputs": [
        {
          "internalType": "address",
          "name": "from",
          "type": "address"
        },
        {
          "internalType": "address",
          "name": "to",
          "type": "address"
        },
        {
          "internalType": "uint256",
          "name": "tokenId",
          "type": "uint256"
        }
      ],
      "name": "safeTransferFrom",
      "outputs": [],
      "stateMutability": "nonpayable",
      "type": "function"
    },
    {
      "inputs": [
        {
          "internalType": "address",
          "name": "from",
          "type": "address"
        },
        {
          "internalType": "address",
          "name": "to",
          "type": "address"
        },
        {
          "internalType": "uint256",
          "name": "tokenId",
          "type": "uint256"
        },
        {
          "internalType": "bytes",
          "name": "data",
          "type": "bytes"
        }
      ],
      "name": "safeTransferFrom",
      "outputs": [],
      "stateMutability": "nonpayable",
      "type": "function"
    },
    {
      "inputs": [
        {
          "internalType": "address",
          "name": "operator",
          "type": "address"
        },
        {
          "internalType": "bool",
          "name": "approved",
          "type": "bool"
        }
      ],
      "name": "setApprovalForAll",
      "outputs": [],
      "stateMutability": "nonpayable",
      "type": "function"
    },
    {
      "inputs": [
        {
          "internalType": "bytes4",
          "name": "interfaceId",
          "type": "bytes4"
        }
      ],
      "name": "supportsInterface",
      "outputs": [
        {
          "internalType": "bool",
          "name": "",
          "type": "bool"
        }
      ],
      "stateMutability": "view",
      "type": "function"
    },
    {
      "inputs": [],
      "name": "symbol",
      "outputs": [
        {
          "internalType": "string",
          "name": "",
          "type": "string"
        }
      ],
      "stateMutability": "view",
      "type": "function"
    },
    {
      "inputs": [],
      "name": "ticketIdCounter",
      "outputs": [
        {
          "internalType": "uint256",
          "name": "",
          "type": "uint256"
        }
      ],
      "stateMutability": "view",
      "type": "function"
    },
    {
      "inputs": [
        {
          "internalType": "uint256",
          "name": "tokenId",
          "type": "uint256"
        }
      ],
      "name": "tokenURI",
      "outputs": [
        {
          "internalType": "string",
          "name": "",
          "type": "string"
        }
      ],
      "stateMutability": "view",
      "type": "function"
    },
    {
      "inputs": [
        {
          "internalType": "address",
          "name": "from",
          "type": "address"
        },
        {
          "internalType": "address",
          "name": "to",
          "type": "address"
        },
        {
          "internalType": "uint256",
          "name": "tokenId",
          "type": "uint256"
        }
      ],
      "name": "transferFrom",
      "outputs": [],
      "stateMutability": "nonpayable",
      "type": "function"
    }
  ],
  "bytecode": "0x60806040523480156200001157600080fd5b50604051620012d5380380620012d5833981016040819052620000349162000129565b8181600062000044838262000222565b50600162000053828262000222565b5050600060065550620002ee915050565b634e487b7160e01b600052604160045260246000fd5b600082601f8301126200008c57600080fd5b81516001600160401b0380821115620000a957620000a962000064565b604051601f8301601f19908116603f01168101908282118183101715620000d457620000d462000064565b81604052838152602092508683858801011115620000f157600080fd5b600091505b83821015620001155785820183015181830184015290820190620000f6565b600093810190920192909252949350505050565b600080604083850312156200013d57600080fd5b82516001600160401b03808211156200015557600080fd5b62000163868387016200007a565b935060208501519150808211156200017a57600080fd5b5062000189858286016200007a565b9150509250929050565b600181811c90821680620001a857607f821691505b602082108103620001c957634e487b7160e01b600052602260045260246000fd5b50919050565b601f8211156200021d57600081815260208120601f850160051c81016020861015620001f85750805b601f850160051c820191505b81811015620002195782815560010162000204565b5050505b505050565b81516001600160401b038111156200023e576200023e62000064565b62000256816200024f845462000193565b84620001cf565b602080601f8311600181146200028e5760008415620002755750858301515b600019600386901b1c1916600185901b17855562000219565b600085815260208120601f198616915b82811015620002bf578886015182559484019460019091019084016200029e565b5085821015620002de5787850151600019600388901b60f8161c191681555b5050505050600190811b01905550565b610fd780620002fe6000396000f3fe608060405234801561001057600080fd5b50600436106100f55760003560e01c806370a0823111610097578063a5763a1f11610066578063a5763a1f146101f5578063b88d4fde14610208578063c87b56dd1461021b578063e985e9c51461022e57600080fd5b806370a08231146101b05780638802255f146101d157806395d89b41146101da578063a22cb465146101e257600080fd5b8063095ea7b3116100d3578063095ea7b31461016257806323b872dd1461017757806342842e0e1461018a5780636352211e1461019d57600080fd5b806301ffc9a7146100fa57806306fdde0314610122578063081812fc14610137575b600080fd5b61010d610108366004610c20565b610241565b60405190151581526020015b60405180910390f35b61012a610293565b6040516101199190610c8d565b61014a610145366004610ca0565b610325565b6040516001600160a01b039091168152602001610119565b610175610170366004610cd5565b61034e565b005b610175610185366004610cff565b61035d565b610175610198366004610cff565b6103ed565b61014a6101ab366004610ca0565b61040d565b6101c36101be366004610d3b565b610418565b604051908152602001610119565b6101c360065481565b61012a610460565b6101756101f0366004610d56565b61046f565b6101c3610203366004610d3b565b61047a565b610175610216366004610da8565b6104a6565b61012a610229366004610ca0565b6104bd565b61010d61023c366004610e84565b610532565b60006001600160e01b031982166380ac58cd60e01b148061027257506001600160e01b03198216635b5e139f60e01b145b8061028d57506301ffc9a760e01b6001600160e01b03198316145b92915050565b6060600080546102a290610eb7565b80601f01602080910402602001604051908101604052809291908181526020018280546102ce90610eb7565b801561031b5780601f106102f05761010080835404028352916020019161031b565b820191906000526020600020905b8154815290600101906020018083116102fe57829003601f168201915b5050505050905090565b600061033082610560565b506000828152600460205260409020546001600160a01b031661028d565b610359828233610599565b5050565b6001600160a01b03821661038c57604051633250574960e11b8152600060048201526024015b60405180910390fd5b60006103998383336105a6565b9050836001600160a01b0316816001600160a01b0316146103e7576040516364283d7b60e01b81526001600160a01b0380861660048301526024820184905282166044820152606401610383565b50505050565b610408838383604051806020016040528060008152506104a6565b505050565b600061028d82610560565b60006001600160a01b038216610444576040516322718ad960e21b815260006004820152602401610383565b506001600160a01b031660009081526003602052604090205490565b6060600180546102a290610eb7565b61035933838361069f565b60065460009061048a838261073e565b6006805490600061049a83610ef1565b90915550909392505050565b6104b184848461035d565b6103e7848484846107a3565b60606104c882610560565b5060006104e060408051602081019091526000815290565b90506000815111610500576040518060200160405280600081525061052b565b8061050a846108cc565b60405160200161051b929190610f18565b6040516020818303038152906040525b9392505050565b6001600160a01b03918216600090815260056020908152604080832093909416825291909152205460ff1690565b6000818152600260205260408120546001600160a01b03168061028d57604051637e27328960e01b815260048101849052602401610383565b610408838383600161095f565b6000828152600260205260408120546001600160a01b03908116908316156105d3576105d3818486610a65565b6001600160a01b03811615610611576105f060008560008061095f565b6001600160a01b038116600090815260036020526040902080546000190190555b6001600160a01b03851615610640576001600160a01b0385166000908152600360205260409020805460010190555b60008481526002602052604080822080546001600160a01b0319166001600160a01b0389811691821790925591518793918516917fddf252ad1be2c89b69c2b068fc378daa952ba7f163c4a11628f55a4df523b3ef91a4949350505050565b6001600160a01b0382166106d157604051630b61174360e31b81526001600160a01b0383166004820152602401610383565b6001600160a01b03838116600081815260056020908152604080832094871680845294825291829020805460ff191686151590811790915591519182527f17307eab39ab6107e8899845ad3d59bd9653f200f220920489ca2b5937696c31910160405180910390a3505050565b6001600160a01b03821661076857604051633250574960e11b815260006004820152602401610383565b6000610776838360006105a6565b90506001600160a01b03811615610408576040516339e3563760e11b815260006004820152602401610383565b6001600160a01b0383163b156103e757604051630a85bd0160e11b81526001600160a01b0384169063150b7a02906107e5903390889087908790600401610f47565b6020604051808303816000875af1925050508015610820575060408051601f3d908101601f1916820190925261081d91810190610f84565b60015b610889573d80801561084e576040519150601f19603f3d011682016040523d82523d6000602084013e610853565b606091505b50805160000361088157604051633250574960e11b81526001600160a01b0385166004820152602401610383565b805181602001fd5b6001600160e01b03198116630a85bd0160e11b146108c557604051633250574960e11b81526001600160a01b0385166004820152602401610383565b5050505050565b606060006108d983610ac9565b600101905060008167ffffffffffffffff8111156108f9576108f9610d92565b6040519080825280601f01601f191660200182016040528015610923576020820181803683370190505b5090508181016020015b600019016f181899199a1a9b1b9c1cb0b131b232b360811b600a86061a8153600a850494508461092d57509392505050565b808061097357506001600160a01b03821615155b15610a3557600061098384610560565b90506001600160a01b038316158015906109af5750826001600160a01b0316816001600160a01b031614155b80156109c257506109c08184610532565b155b156109eb5760405163a9fbf51f60e01b81526001600160a01b0384166004820152602401610383565b8115610a335783856001600160a01b0316826001600160a01b03167f8c5be1e5ebec7d5bd14f71427d1e84f3dd0314c0f7b2291e5b200ac8c7c3b92560405160405180910390a45b505b5050600090815260046020526040902080546001600160a01b0319166001600160a01b0392909216919091179055565b610a70838383610ba1565b610408576001600160a01b038316610a9e57604051637e27328960e01b815260048101829052602401610383565b60405163177e802f60e01b81526001600160a01b038316600482015260248101829052604401610383565b60008072184f03e93ff9f4daa797ed6e38ed64bf6a1f0160401b8310610b085772184f03e93ff9f4daa797ed6e38ed64bf6a1f0160401b830492506040015b6d04ee2d6d415b85acef81000000008310610b34576d04ee2d6d415b85acef8100000000830492506020015b662386f26fc100008310610b5257662386f26fc10000830492506010015b6305f5e1008310610b6a576305f5e100830492506008015b6127108310610b7e57612710830492506004015b60648310610b90576064830492506002015b600a831061028d5760010192915050565b60006001600160a01b03831615801590610bff5750826001600160a01b0316846001600160a01b03161480610bdb5750610bdb8484610532565b80610bff57506000828152600460205260409020546001600160a01b038481169116145b949350505050565b6001600160e01b031981168114610c1d57600080fd5b50565b600060208284031215610c3257600080fd5b813561052b81610c07565b60005b83811015610c58578181015183820152602001610c40565b50506000910152565b60008151808452610c79816020860160208601610c3d565b601f01601f19169290920160200192915050565b60208152600061052b6020830184610c61565b600060208284031215610cb257600080fd5b5035919050565b80356001600160a01b0381168114610cd057600080fd5b919050565b60008060408385031215610ce857600080fd5b610cf183610cb9565b946020939093013593505050565b600080600060608486031215610d1457600080fd5b610d1d84610cb9565b9250610d2b60208501610cb9565b9150604084013590509250925092565b600060208284031215610d4d57600080fd5b61052b82610cb9565b60008060408385031215610d6957600080fd5b610d7283610cb9565b915060208301358015158114610d8757600080fd5b809150509250929050565b634e487b7160e01b600052604160045260246000fd5b60008060008060808587031215610dbe57600080fd5b610dc785610cb9565b9350610dd560208601610cb9565b925060408501359150606085013567ffffffffffffffff80821115610df957600080fd5b818701915087601f830112610e0d57600080fd5b813581811115610e1f57610e1f610d92565b604051601f8201601f19908116603f01168101908382118183101715610e4757610e47610d92565b816040528281528a6020848701011115610e6057600080fd5b82602086016020830137600060208483010152809550505050505092959194509250565b60008060408385031215610e9757600080fd5b610ea083610cb9565b9150610eae60208401610cb9565b90509250929050565b600181811c90821680610ecb57607f821691505b602082108103610eeb57634e487b7160e01b600052602260045260246000fd5b50919050565b600060018201610f1157634e487b7160e01b600052601160045260246000fd5b5060010190565b60008351610f2a818460208801610c3d565b835190830190610f3e818360208801610c3d565b01949350505050565b6001600160a01b0385811682528416602082015260408101839052608060608201819052600090610f7a90830184610c61565b9695505050505050565b600060208284031215610f9657600080fd5b815161052b81610c0756fea264697066735822122092814fa77708b50b5362921ba0d54c0039e98d56f13470bc204b60cc3916d1fe64736f6c63430008140033",
  "linkReferences": {},
  "deployedLinkReferences": {}
}